:020000040800F2
:10000000000008248D070008811D0008851D0008D8
:10001000891D00088D1D0008911D000800000000CA
:10002000000000000000000000000000951D000816
:10003000991D0008000000009D1D0008A11D00087A
:10004000DD070008DD070008DD070008DD07000800
:10005000DD070008DD070008DD070008DD070008F0
:10006000DD070008DD070008DD070008A51D000802
:10007000DD070008DD070008DD070008DD070008D0
:10008000DD070008DD070008DD070008DD070008C0
:10009000DD070008DD070008DD070008DD070008B0
:1000A000DD070008DD070008DD070008DD070008A0
:1000B000DD070008DD070008DD070008DD07000890
:1000C000DD070008DD070008DD070008DD07000880
:1000D000DD070008DD070008DD070008DD07000870
:1000E000DD070008DD07000800000000DD0700084C
:1000F000DD070008DD070008DD070008DD07000850
:10010000DD070008DD070008DD070008DD0700083F
:10011000DD070008DD070008DD070008DD0700082F
:10012000DD070008DD070008DD070008DD0700081F
:10013000DD070008DD070008DD070008DD0700080F
:1001400000000000000000000000000000000000AF
:10015000DD070008DD070008DD070008DD070008EF
:10016000DD070008DD070008DD070008DD070008DF
:10017000DD070008DD070008B11D000800000000D1
:10018000DD070008DD070008DD070008DD070008BF
:10019000DD070008DD070008DD070008DD070008AF
:1001A000DD070008DD070008DD070008DD0700089F
:1001B000DD070008DD070008DD070008DD0700088F
:1001C000DD070008DD070008DD070008DD0700087F
:1001D000DD070008C91D0008DD070008DD0700086D
:1001E000DD070008DD070008DD070008DD0700085F
:1001F000DD070008DD070008DD070008DD0700084F
:10020000DD070008DD070008DD070008DD0700083E
:10021000DD070008BD1D0008DD070008DD07000838
:10022000DD070008DD070008DD070008000000000A
:10023000DD070008DD07000800000000DD070008FA
:10024000DD070008DD070008DD070008DD070008FE
:10025000DD070008DD070008DD070008DD070008EE
:10026000DD070008DD070008DD070008DD070008DE
:10027000DD070008DD070008DD07000800000000BA
:10028000DD070008DD070008DD07000800000000AA
:0802900000000000DD0700087A
:1002A00010B5054C237833B9044B13B10448AFF3B0
:1002B00000800123237010BD600E002400000000A8
:1002C000F439010808B5034B1BB103490348AFF3E8
:1002D000008008BD00000000640E0024F43901080D
:1002E00028484FF00101016027480168002902D128
:1002F000DFF898D011E02DE9F00F00B50A6912F48B
:10030000805205D01EF0100302D12DED108A08B4E2
:10031000C1F818D04FF0000202601B4C1C4D1D4E5E
:100320004FF0100282F31188D5F80080B8F1000F69
:100330000DD1D6F800C0BCF1000F08BF11F0CCFC05
:100340004FF0000282F31188BFF36F8FE8E7C4F823
:100350000080D8F818D0D8F8100010F4805006D0DB
:10036000009B13F0100302D108BCBDEC108A5DF8AD
:1003700004EBBDE8F00F03484FF00001016081F38A
:1003800011887047748F0424708F0424E8D40224E9
:100390006C8F0424E0D3022410F8012B11F8013BE8
:1003A000012A28BF9A42F7D0D01A7047034613F8A3
:1003B000012B002AFBD1181A0138704700000000F9
:1003C00001F0FF01102A2BDB10F0070F08D010F806
:1003D000013B013A8B422DD010F0070F42B3F6D10A
:1003E000F0B441EA012141EA014122F007047FF023
:1003F00000070023F0E80256083C85EA010586EA7A
:10040000010685FA47F5A3FA87F586FA47F6A5FAB5
:1004100087F68EB9EED1F0BC01F0FF0102F00702C1
:1004200032B110F8013B013A83EA010313B1F8D16C
:100430000020704701387047002D06BF354603384D
:10044000073815F0010F07D1013015F4807F02BF86
:10045000013015F4C03F0130F0BC0138704700BFD7
:1004600053B94AB9002908BF00281CBF4FF0FF311B
:100470004FF0FF3000F088B9ADF1080C6DE904CE03
:1004800000F006F8DDF804E0DDE9022304B070476F
:100490002DE9F047089D0F4604468C46002B48D1B5
:1004A0008A42164661D9B2FA82F34BB1C3F12002F7
:1004B00001FA03FC20FA02F29E4042EA0C0C9C4036
:1004C0004FEA164EB7B2BCFBFEF1220C0EFB11CC6C
:1004D00042EA0C4201FB07F0904209D9B21801F13F
:1004E000FF3C80F0EE80904240F2EB8002393244D3
:1004F000121AA4B2B2FBFEF00EFB102244EA024430
:1005000000FB07F7A74209D9341900F1FF3280F048
:10051000DA80A74240F2D7803444023840EA0140F2
:10052000E41B00211DB1DC400023C5E90043BDE808
:10053000F0878B4206D90DB1C5E9000100210846BC
:10054000BDE8F087B3FA83F1002948D1BB4202D35A
:10055000824200F20781841A67EB0302012094466D
:10056000002DE4D0C5E9004CE1E7002A00F09280BC
:10057000B2FA82F3002B40F0A8808A1A4FEA164E96
:100580001FFA86FC0121200CB2FBFEF70EFB17229E
:1005900040EA02420CFB07F0904207D9B21807F17B
:1005A000FF3802D2904200F2E2804746121AA4B20B
:1005B000B2FBFEF00EFB102244EA02440CFB00FCEE
:1005C000A44507D9341900F1FF3202D2A44500F244
:1005D000CB801046A4EB0C0440EA0740A2E7C1F12F
:1005E00020068B4022FA06FC4CEA030C07FA01F4C1
:1005F00020FA06F3F7404FEA1C49234300FA01F8BA
:100600001FFA8CFEB7FBF9F01C0C09FB107744EACB
:10061000074400FB0EF7A74202FA01F20AD91CEBCD
:10062000040400F1FF3A80F09B80A74240F29880DA
:1006300002386444E41B9FB2B4FBF9F309FB134492
:1006400047EA044403FB0EFEA64509D91CEB04044B
:1006500003F1FF3780F08280A6457FD9023B6444D6
:1006600043EA0040A4EB0E04A0FB02E7BC42734641
:10067000B94663D360D05DB1B8EB030264EB090403
:1006800004FA06F622FA01F31E43CC40C5E90064E1
:1006900000214CE76208480842EAC1710B0C43EAAA
:1006A00000438AB242EA0342B3FBF6F1E407B446E0
:1006B0003746B6461F23B0FBF6F0D21B41EA004195
:1006C00061E7614614E7104628E7C3F1200120FAEC
:1006D00001F29E4027FA01F19F403A434FEA164E3D
:1006E0001FFA86FCB1FBFEF70EFB1710110C41EA56
:1006F000004107FB0CF8884504FA03F43AD9711855
:1007000007F1FF3001D288451FD8A1EB0801B1FBEA
:10071000FEF808FB0CF70EFB181192B242EA0142F8
:10072000BA422FD2B21808F1FF31C6D2BA42C4D2AF
:10073000A8F102013244C0E7F0459CD2BEEB0203AF
:1007400067EB0C070138B94695E7A6EB080841446A
:10075000B81EB1FBFEF808FB0CF7DCE73B467FE771
:10076000504667E70846FBE63444023832E7023F6A
:1007700032441BE7A1EB08013846B1FBFEF808FB49
:100780000CF7C8E7414698E7704700BFDFF834D060
:1007900006F0A8F80C480D490D4A002302E0D45891
:1007A000C4500433C4188C42F9D30A4A0A4C0023BB
:1007B00001E013600432A242FBD312F0A9FD01F064
:1007C00083F970470000082400000024240200245C
:1007D000C4530108600E0024886E0424FEE7000064
:1007E00000230C480C49202210B5C0E90013C0E9D1
:1007F0000223C0E9043383610363C0E90833C0E91D
:100800000A3306F033FA00B910BDBDE8104001F01C
:10081000D5B800BFF80E002400000248594B02680A
:10082000F0B59A428DB04FF00004CDE9064408942B
:10083000CDE9094401D00DB0F0BD534B0D2605465E
:100840005248D3F8DC20022742F00102C3F8DC2032
:10085000D3F8DC2002F001020092009AD3F8E020E5
:1008600042F01002C3F8E020D3F8E02002F01002BA
:100870000192019AD3F8E02042F00102C3F8E0208F
:10088000D3F8E02002F001020292029AD3F8E020AD
:1008900042F00402C3F8E020D3F8E02002F00402A2
:1008A0000392039AD3F8E02042F00802C3F8E02054
:1008B000D3F8E02002F008020492049AD3F8E02072
:1008C00042F00202C3F8E0207322D3F8E0300A9627
:1008D00003F0020305930223059906A9CDE9062337
:1008E00008F084F8502306A9294806930A9607972A
:1008F000CDE9084408F07AF8C02306A925480693F4
:10090000CDE90946CDE9077408F070F8082306A977
:1009100021480693CDE90946CDE9077408F066F849
:1009200080231E4806A90A9606931D4E0797CDE917
:10093000084408F05BF81B4A4B233046346274626B
:1009400086E81C004FF480624FF48053C6E90342EE
:1009500073614FF480424FF48073C6E9062306F0BA
:100960009FFB58B900224E20AE641146B56306F0D5
:100970008BF84E2006F0C2F80DB0F0BD01F01EF865
:10098000F0E700BF0000024800440258001002587F
:100990000000025800080258000C025800040258D7
:1009A0007C0E0024100002400C4B00220B2011464C
:1009B00010B5D3F8D84082B044F00104C3F8D84051
:1009C000D3F8D83003F001030193019B06F05CF8E3
:1009D0000B2002B0BDE8104006F090B80044025869
:1009E0002DE9F0415A4C8EB00025082159480127C5
:1009F0000C952A4602264FF48078CDE90855CDE9BA
:100A00000A55D4F8E03043F01003C4F8E030D4F8CD
:100A1000E03003F010030093009BD4F8E03043F083
:100A20000403C4F8E030D4F8E03003F00403019389
:100A3000019BD4F8E03043F08003C4F8E030D4F8F0
:100A4000E03003F080030293029BD4F8E03043F0DF
:100A50000103C4F8E030D4F8E03003F0010303935D
:100A6000039BD4F8E0300B43C4F8E030D4F8E03016
:100A70000B400493049BD4F8E03043F00203C4F825
:100A8000E030D4F8E03003F002030593059B08F052
:100A9000EFFA01224FF420512E4808F0E9FA08231A
:100AA00008A92C4808930997CDE90A5507F09EFF3D
:100AB0004FF40052002308A927480A96CDE90823DD
:100AC00007F094FF4FF420530997032708A9214802
:100AD00008930A950B9707F089FF08A91F48CDF8DE
:100AE0002080CDE90965CDE90B6507F07FFF08A9F6
:100AF0001A48CDF82080CDE90965CDE90B6507F0EE
:100B000075FFD4F8E030072208A943F00803C4F8C1
:100B1000E030D4F8E03003F008030693069BD4F8E5
:100B2000E83043F48023C4F8E830D4F8E83009967C
:100B300003F480230A9507934FF4407307980848FD
:100B40000893CDE90B7207F051FF0EB0BDE8F081BC
:100B500000440258001002580008025800000258D1
:100B6000000C025810B50023174C184801221849F0
:100B700084E80B002046C4E90323C4E90533C4E933
:100B8000073308F0B1FB50B900210F4809F038F8DD
:100B900068B900210C4809F05DF880B910BD00F07B
:100BA0000DFF0021084809F02BF80028F1D000F0D3
:100BB00005FF0021044809F04DF80028EED0BDE8FB
:100BC000104000F0FBBE00BF480F0024005400405E
:100BD0008A5E80400000000010B5B6B000210446D7
:100BE000BC2207A80691CDE90211CDE9041112F04B
:100BF00070FB1F4B22689A4201D036B010BD08230B
:100C000007A807930AF01CFD40BB1A4C042202A956
:100C10001948D4F8E03043F00203C4F8E030D4F8C7
:100C2000E0300692012203F002039FED0F7B009358
:100C3000009B00238DED027BCDE9042307F0D6FE57
:100C4000D4F8E83043F40013C4F8E830D4F8E830BE
:100C500003F400130193019B36B010BD00F0AEFE0B
:100C6000D3E700BFAFF300800003000012000000D4
:100C7000005400400044025800040258026808B5BD
:100C80000B4B9A4200D008BD0A4A4FF480710A48C3
:100C9000D2F8E83023F40013C2F8E83008F0B2F8D4
:100CA0004FF400710448BDE8084008F0ABB800BF3D
:100CB000005400400044025800040258014B1868D8
:100CC000704700BFA0A50024002A18BF002924D027
:100CD000034610B3012030B4114C2070BFF35F8F76
:100CE000104D95F800C0BCF1020F04D00023002085
:100CF000237030BC70470C4D2D78002DF6D10B4D74
:100D00002D78022DF2D10A4C24681C60094C0A4B44
:100D100024680C601B781370EBE70020704700BF5D
:100D2000A4A5002440A8002435A8002434A8002449
:100D3000A0A50024ACA50024B0A50024BFF35F8FBC
:100D4000014B00221A707047A4A500240048704788
:100D5000447E0124A02070477820704714207047FB
:100D600000207047782070477820704730B4154CC9
:100D7000247814B3144C94F800C084451AD9C9B12E
:100D8000C2B1029D002D18BF002B13D0039D8DB161
:100D900000EB800004EB8004606808600120A1681B
:100DA0001160E2681A60029A2369136063692B601C
:100DB00030BC7047002030BC704704F0FF0C30BCE2
:100DC00060467047A4A50024B0A50024024A034B46
:100DD00010601960704700BF3CA8002438A80024A8
:100DE0002DE9F84FD24C2DED0A8BDFEDD29A9FED15
:100DF000D29ADFEDD28A9FEDD28AD24B4FF0FF32EA
:100E0000012118680FF040FA0028F6DB0122CE48D5
:100E1000CE494FF0000A0270CD4ACE4BC2F800A076
:100E2000D1F8FC2042F08072C1F8FC201A6842F030
:100E300001021A60BFF34F8FBFF36F8F5F6805F039
:100E4000F3FDB6EE004AC44A0646DFEDC44A9FED04
:100E5000C45A9FEDC43A07EE90AAF6EE0E6AB8EEB9
:100E6000E77AFEEE007A37EE047AE7EE267AF5EEC0
:100E7000C07AF1EE10FA00F13581F4EEC97AF1EEA4
:100E800010FA79FE277ABDEEE77A17EE103AB8EE3F
:100E9000C77A03EB8308762B77EEC75A4FEA4818D8
:100EA00040F32781C346F6EE0E3A91464FF0000E0E
:100EB00007EE90EAB0EE692A15231421B8EEE77A1E
:100EC000FEEE007A37EE047AE7EE237AF5EEC07A8A
:100ED000F1EE10FA13D4F4EEC97AF1EE10FA79FEBD
:100EE000277ABDEEE77A17EE100AB8EEC72A411846
:100EF000762837EEC22A0B46D8BF00F1150308EB5F
:100F0000010C08EB030059445B4434F81CC0F3EEB9
:100F10000F2A34F810000EF1010E9CFA9CFC34F8F4
:100F2000111040BA34F81330CCF3451549BA5BBA06
:100F3000BEF1800F06EE105AC0F3451507EE105AA9
:100F4000C1F34515B8EE466A06EE905AC3F345154F
:100F5000B8EE477A0AEE105ACCF3C4250CF01F0CF9
:100F6000F8EE666A00EE105AC0F3C425B8EE4AAA3D
:100F700000F01F0000EE905AC1F3C425B8EE400AFD
:100F800001F01F0101EE105AC3F3C425F8EE600A08
:100F900003F01F0301EE905AC6EE287AF8EE611AAC
:100FA00087EE286AC1EEA2AA01EE90CA86EEA87A60
:100FB000C0EEA2BACAEE286AF8EE610A01EE900A03
:100FC000B8EE411A80EE22CAB8EE610A01EE901A1C
:100FD00081EE22BAB8EE611A01EE903A80EEA2AA32
:100FE000F8EE611AC0EE220A81EE220A81EEA21A00
:100FF00067EE887A26EE086A27EE087A66EE886A37
:10100000ECEE247AABEEA46AABEE247AEAEEA46AA4
:10101000EAEE057AA0EE856AA0EE057AE1EE056AB1
:1010200036EE676A76EEC76AE6EE027AA6EE827A56
:1010300037EE677AE7EE257AB0EE447AA7EE837A48
:10104000FDEEC77A17EE903A83F3080309F8013FE3
:101050007FF42EAF0AF1010A8032BAF1800F7FF4DB
:10106000FAAE03F01FFD00284BD10323364A13705C
:10107000384B5B68DF1B05F0D7FC861B09F0C0FF0F
:10108000024688B187B14FF00008374B400841460F
:10109000E7FB03014346FFF7E3F94FF0FF33024656
:1010A000834278EB010134D24FF47A7306FB03F3E9
:1010B000274A1360244A1378022B1DD01378052B7E
:1010C0001AD0214B1B78022B03D1284A1368013315
:1010D0001360274A002304211068264A13700EF07B
:1010E00051FB8AE6F0EE695A4FF0A00B4FF0000872
:1010F000D9E608F1A00BD6E603F0DEFC1E4B186023
:10110000DFE71E4803F0D0FC28B904230E4A137011
:10111000AEE71346CCE71A4804F034FA18B10223BC
:10112000094A1370A4E70523074A1370A0E700BF1C
:10113000447E0124000000000000EE4200007C42DA
:10114000A245163F3CA8002434A8002400ED00E08E
:10115000ACA50024001000E0433E01248716993E10
:10116000D578E93D00007F4340420F00A0A5002450
:1011700038A8002435A80024A8A50024443E012452
:10118000B0A500242DE9F04F524CDFF878A12DEDE9
:10119000068B8FB04FF0FF334F480025112200938C
:1011A0000F2107AB006807950EF054FBA842F1DB56
:1011B000079B18071ED4D90706D5484A1278002A7B
:1011C0003BD0002246490A709A0703D5434A127859
:1011D000022A14D05B07DDD5404B1B78022BD9D1F6
:1011E000404B1B78023B042BD4D8DFE803F0916E10
:1011F00056514400284602F02BFD079BDBE73A4E90
:1012000044F6882533483246002330F81310A033C3
:10121000B3F5964F22F8021FF7D1783DF03E023029
:1012200015F1780FEFD1A023304A28210720009331
:10123000782302F017FD079BCCE72B4E44F6882558
:101240002B483246002330F81310A033B3F5964FE5
:1012500022F8021FF7D1783DF03E023015F1780FE9
:10126000EFD1A023214A282107200093782302F000
:10127000F9FC079BA5E7002002F0EAFC1D4B0C21BE
:101280000193782210230820009102F0F3FC81E7FB
:10129000002002F0DDFC184BF1E700200C2502F0E5
:1012A000D7FC164B2946782201930820102300957D
:1012B00002F0E0FC03F0FAFB102378221E21CDE9B6
:1012C0000050082002F0D6FC64E7002002F0C0FCC9
:1012D0000B4BD4E7447E012438A8002440A8002406
:1012E0009C0F002434A80024523D012444A800246B
:1012F000A00F0024F03B0108E43B0108D83B0108A3
:10130000C83B0108B0A500240000F0420000000026
:101310009AF80030002B00F0CB81B3EE046A5FED49
:10132000067A5FED065A012B9AED027AF0EE466AD4
:101330009AED035AF0EE463AB0EE654AE7EE276AB8
:10134000B0EE657AA5EE277A9AED045AE5EE273AD3
:101350009AED055AA5EE274A3AD0023B1422CA4913
:10136000DBB202FB0313A1F11402F0EE462A92ED68
:10137000073AD2ED084A143292ED045AE3EE272AD6
:1013800092ED052AB0EE653AA4EEA73AF0EE464A91
:10139000F4EEE26AE5EE274AB0EE655AF1EE10FA95
:1013A000B4EEC37AA2EE275A72FEA66AF1EE10FAE4
:1013B000F4EEE34A33FE077AF1EE10FAB4EEC45AC3
:1013C00074FEA33AF1EE10FA35FE044A9342CCD1F2
:1013D000F7EE004ADFEDAD2A73EEE67A9FEDAC5AE8
:1013E00074EE475AB0EE086AF4EEE74AB6EE003AF9
:1013F000F1EE10FAF4EEE54A74FEA77A67EEA27AEF
:10140000F1EE10FAB4EEE76A74FEA55A65EEA25A40
:10141000F1EE10FAB4EEE56A76FE277A76EEE76A28
:10142000F1EE10FA77EEA37A36FE256A37EE467AA9
:1014300036EE046A77EEE68A76EEA76A76EE477AAB
:1014400037EE067A26EE839AC8EEA76A27EE038A5D
:10145000F4EE664AF1EE10FA77FEA88AF4EEC58A39
:10146000A8EEC39AA8EEC38AF1EE10FA40F26A81A0
:101470000027F6EE006AB7EE005ADFED855A9FEDC1
:10148000856A3846DFF824C207EE907A614600226A
:10149000B8EEE77A37EE267AC7EE257AB0EE497ACB
:1014A00075EE677AA7EEA87AFDEEC77A17EE906A16
:1014B0009F2E8CBF0025012507EE902A0132F8EE01
:1014C000E77A77EEA67A87EE867AF0EE487AE7EE4C
:1014D000287AFDEEE77A17EE903A772B04D803EBE3
:1014E0008303002D40F01581782A21F8020FE3D103
:1014F00001370CF1F00CA02FC6D17823664A2821C1
:101500000720009702F0AEFB9AF800C0BCF1000F74
:1015100000F0EA80DFED5F9A4FF00009DFED5FAA8F
:101520009FED5BAA5E4EF3EE047AD6ED045AB0EE60
:101530006A5A96ED036A96ED027A5FFA89F3F0EE45
:10154000674AD6ED056AE5EEA97A564AA6EE295A0B
:10155000F0EE6A5AA2FB0321E7EE294A01F0FC02F1
:10156000E6EEA95AB0EE677A02EB910235EE485AE0
:10157000F6EE007A9B1A37EE497A85EE284ADBB2FE
:1015800074EEC94A75EEC85A87EE286AC4EEA83AC6
:10159000C5EEA84AB0EE675AF7EE006AF0EE675A59
:1015A000A4EE295A36EEC67AB0EE676A76EEE36AA2
:1015B000A7EE0A6ABDEEC57AE6EE8A7AE4EEA95A8B
:1015C00017EE10EA2EEAEE7EFDEEE77A1FFA8EF7AE
:1015D000BDEEE57A17EE905A17EE101ABDEEC67AF8
:1015E000772917EE102AA8BF77219F2D22EAE272F1
:1015F00088B2A8BF9F258E45039007F1070080B2EF
:1016000080F29780AA4291B2ADB280F29280264ACF
:1016100001F12808049009F1010932F813B01FFA0A
:1016200088F8039B1436CDF800B05A1C0223D21B55
:101630006F1C92B27F1A4146059202F00BFB05F136
:101640002701BFB2059A022389B20498CDF800B0F1
:1016500002F000FB04983B4602224146CDF800B060
:1016600002F0F8FA039B41460222981DCDF800B023
:101670003B4680B202F0EEFA9AF800C05FFA89F3B6
:101680009C453FF650AF2FE0C4A500240AD7A33DE8
:10169000000020430000F04244A8002400000000A5
:1016A000B0A50024CDCCCCCC2043010842A8002416
:1016B000394E44F6882539483246002330F8131055
:1016C000A033B3F5964F22F8021FF7D1783DF03ED4
:1016D000023015F1780FEFD1A023314A28210720DD
:1016E0000093782302F0BEFA2E4B08A82E491A6800
:1016F0002E4B02F5FA72A3FB0232920911F062FD41
:101700000021282387220846009102F0A3FA08ABA3
:10171000B5E506EB4313782A34F8133021F8023F7D
:101720007FF4CAAE01370CF1F00CA02F7FF4ACAE01
:10173000E3E609F1010914365FFA89F39C453FF6A7
:10174000F2AED1E7B5EEC09AF1EE10FA08D475EE1C
:10175000687AB4EEE79AF1EE10FA37FE899A01E062
:101760009FED139ADFED137AF4EEE78AF1EE10FAAB
:101770003FF67EAEB5EEC08AF1EE10FA08D477EEF1
:10178000E87AB4EEE78AF1EE10FA37FE888A6FE65F
:101790009FED078A6CE600BF523D0124447E012480
:1017A00044A80024ACA50024C03B0108D34D62101E
:1017B000000000000000F0422DE9F84F01E00FF0BA
:1017C00009F94FF400515C4807F04CFC03460A202D
:1017D000012BF4D0DFF890910026584B0821584D8A
:1017E000584CDFF888B1DFF88881DFF888A1D9F894
:1017F00000002E7026601E708BF8006088F8006074
:101800000DF0C0FF31464FF416534F48524605F0D5
:101810007BFA002846D14FF40051474807F022FCDC
:1018200001284A4E4FF0010729D000B937702368CC
:10183000DBB1002323602B78002B3CD198F80030DB
:101840009BB9434B434A33F8021D9A4522F8021FC5
:10185000F9D10121D9F8000088F800700DF092FF4D
:10186000002802DA002388F8003001200FF0B2F8D7
:101870004FF40051304807F0F5FB0128D5D13378FB
:10188000002BD4D014200FF0A5F84FF400512A48B3
:1018900007F0E8FB0128CAD1002333702B7893BBF3
:1018A0002870C4E708212C4807F0E6FB4FF4AF701E
:1018B00005F0C0F8F6E72B78012BD6D1244B274A48
:1018C00033F8021D9A4522F8021FF9D10221D9F8F6
:1018D000000029700DF056FF184B01211F70204B9E
:1018E0008BF8007018680EF06DFC0028BDDA00233C
:1018F000124A0421D9F80000137006238BF8003037
:101900000DF040FFB1E72B78022B90D10B4B1B78E9
:10191000002B8CD1134B1A7802F0FF03002A86D1DA
:101920000821D9F800002B708BF8003088F80030BF
:101930000DF028FF7BE700BF0008025835A80024FF
:1019400040A8002448140224F80E002400000024BB
:101950004CAA02249E0F002400100258427E01244B
:101960003CA80024A4A5002438A8002434A80024FE
:101970009C0F00244C14022410B50C4C05F054F8B4
:101980002368C01AB0F57A7F07D2094A1368013379
:10199000084901201360086010BD05F045F8044AAD
:1019A00005490123206010680860F1E7980F0024C2
:1019B000940F0024481402244414022408B5012280
:1019C0000821074807F054FB042005F033F80022F3
:1019D0000821034807F04CFBF92005F02BF8EEE74F
:1019E0000010025830B5CDB04C22002102AC0AA83C
:1019F00011F06FFC20220021204611F06AFCBC226D
:101A000000211DA811F065FC022008F02BFF002228
:101A10002B4901922B4A906940F4404090619069B3
:101A200000F440400190C86A40F00100C862C96AF1
:101A300001F001010191019B93699B04FCD52122D6
:101A40004FF4803308250AA8CDE90A230122022396
:101A50001A951092052219931592C022CDE91333DD
:101A6000CDE9173300231692CDE91B3308F098FF18
:101A700018BB40233F22A060042122600322E361BF
:101A80002046E5606260C4E904334FF48063A361DB
:101A900009F044FB88B94FF480224FF440131DA88D
:101AA0001D923E9309F0CCFD38B94FF480124FF0EF
:101AB000807109F053FA4DB030BDFFF77FFF00BFD2
:101AC000000400580048025810B5002386B04FF0BB
:101AD0001044CDE90233CDE9043305F033F8012396
:101AE000514A02A8ADF808300593CDE9034205F04C
:101AF00047F840F201114D4A02A84D4B03944FF0B4
:101B00001054ADF808100492059305F039F8494ACD
:101B100040F20121484B02A8ADF808100394CDE92A
:101B2000042305F02DF8042005F01AF8434A536900
:101B300013F4003311D1BFF34F8FBFF36F8FC2F88F
:101B40005032BFF34F8FBFF36F8F536943F40033AD
:101B50005361BFF34F8FBFF36F8F3848436913F45E
:101B6000803326D1C0F88430BFF34F8FD0F8803057
:101B700043F6E074C3F34E3CC3F3C90E4FEA4C1C6A
:101B80000CEA0401734641EA8372013BC0F860220B
:101B90005A1CF8D1ACF1200C1CF1200FF0D1BFF38E
:101BA0004F8F436943F480334361BFF34F8FBFF3DB
:101BB0006F8F04F0FDFEFFF715FFFEF711FFFEF734
:101BC000F3FEFEF70DFEFEF7CDFF00F03FF800F04C
:101BD00027F900F019FA00F0D9F901F0EFFF02F04F
:101BE0005BFFE8B90921164801F038FC98B10020E4
:101BF00002F02EF813480C2110237822CDE90010B2
:101C0000082002F037F808210F4807F035FA78204D
:101C100004F010FFF7E702F01BF80FF0CDFFFEE72E
:101C200002F03EFFDEE700BF1B00010016000105C9
:101C300000000101120001030001010100ED00E0BC
:101C4000480F0024FC3B01080010025810B516484C
:101C50004FF48002154C4FF4C0210023A1604FF0D7
:101C6000005123616361C4E9000207224FF08060E4
:101C7000E2604FF08042C4E906012046C4E908331F
:101C8000C4E90A33C4E90D23C4E90F33C4E91133AD
:101C9000C4E91333C4E915330AF0A6FB00B910BD3B
:101CA000BDE81040FFF78ABE0034014050AA02246C
:101CB00010B5B6B000210446BC2207A80691CDE9B4
:101CC0000211CDE9041111F004FB214B22689A4264
:101CD00001D036B010BD4FF4005307A8079309F0A8
:101CE000AFFC40BB1B4B052402A91B48D3F8F020D6
:101CF00042F40052C3F8F020D3F8F02002F400526E
:101D00000092009AD3F8E02042F01002C3F8E020DD
:101D1000D3F8E030069403F010039FED097B0193A4
:101D2000019B8DED027B9FED087B8DED047B06F022
:101D30005DFE36B010BDFFF741FED3E7AFF3008084
:101D4000005000000200000000000000020000003F
:101D5000003401400044025800100258074B82B082
:101D6000D3F8F42042F00202C3F8F420D3F8F430A0
:101D700003F002030193019B02B070470044025834
:101D8000704700BFFEE700BFFEE700BFFEE700BFF1
:101D9000FEE700BF704700BF704700BF704700BF3D
:101DA00004F036BE014805F0EDBF00BF7C0E0024F4
:101DB000014805F03DB800BFF80E002401480AF0C4
:101DC0002DBE00BFE0AA0224014808F01FB800BFE2
:101DD00058AE02240D4903460D4A086810B50D4C53
:101DE000121B20B10344934207D80B6010BD0A4C6C
:101DF00020460C6003449342F7D911F083FA0C2279
:101E000003464FF0FF301A6010BD00BFD8AA02246D
:101E10000000082400040000609104240000000079
:101E200030B50024A1B02C22474D214614A80294BD
:101E30000C94CDE90344CDE90D44CDE90F44CDE93F
:101E4000114411F046FA0B23404A2846AC60AC61BD
:101E5000C5E9002340F2E733C5E90444EB600AF02A
:101E600033FD00283ED10023002202A93648CDE9E7
:101E70000223002304930BF065F800283BD1602275
:101E8000082000230CA90C9204220F902E481293D4
:101E90009FED277BCDE90D338DED107B0AF0B8FE69
:101EA00030BB00234FF4005214A927481E939FED26
:101EB000227BCDE91433CDE91633CDE91832CDE9D3
:101EC0001A338DED1C7B0BF091F870B91F4A00237B
:101ED00029680A939142CDE90633CDE908330DD044
:101EE00021B030BDFFF76AFDBDE7FFF767FDEDE705
:101EF000FFF764FDD5E7FFF761FDC0E7144B012450
:101F000006A91448D3F8E02042F01002C3F8E020FC
:101F1000D3F8E0300A9403F010039FED097B01939E
:101F2000019B8DED067B06F061FD21B030BD00BF49
:101F3000000000000000000000000002000000009F
:101F4000000400000200000030AB02240000014049
:101F500000440258001002580A4B02689A4200D00E
:101F60007047094B82B0D3F8F02042F00102C3F869
:101F7000F020D3F8F03003F001030193019B02B08D
:101F8000704700BF000001400044025808B508F047
:101F90008DFC00221749184800F0D8FC70B9174989
:101FA000154800F0E7FC88B91549134800F088FA95
:101FB000A0B9114800F0FAFCB8B908BDFFF7FEFC63
:101FC0000E490D4800F0D6FC0028EDD0FFF7F6FCD6
:101FD0000B49094800F074FA0028EAD0FFF7EEFC3C
:101FE000054800F0E3FC0028E7D0BDE80840FFF713
:101FF000E5BC00BFE00000247CAB022448000024C4
:10200000900000240000000010B50921104C114878
:102010000023022261600121206020462361E260EA
:10202000A261636223639FED087BC4E9071384ED1B
:102030000A7B07F039FE00B910BDBDE81040FFF77C
:10204000BDBC00BFAFF30080000000000000000036
:1020500058AE0224000008401E4B026830B59A4278
:1020600089B04FF00004CDE90244CDE90444069460
:1020700001D009B030BD184D4FF4C05202A9D5F8B7
:10208000E03043F00103C5F8E030D5F8E03003F06C
:1020900001030093022300981048CDE902230A238C
:1020A000069306F0A3FCD5F8D830224621466520D9
:1020B00043F00063C5F8D830D5F8D83003F000639A
:1020C0000193019B04F0E0FC652004F017FD09B0CA
:1020D00030BD00BF00000840004402580000025814
:1020E000D0F8D43200EB830010B5D0F8C04284B1F0
:1020F000D0F8C4325BB194F80002FF2807D09B6887
:10210000214694F801229847FF2384F800320020EA
:1021100010BD032010BD00BF03460A2201481A80EB
:10212000704700BF8400002470B5822106460F4826
:1021300000F0BCFD012105460C4800F0B7FD8121EF
:1021400004460A4800F0B2FD0DB11022AA711CB17C
:10215000002140226171227118B100214022417199
:10216000027143230148338070BD00BF0400002486
:1021700070B5822106460F4800F098FD0121054602
:102180000C4800F093FD812104460A4800F08EFDC2
:102190000DB11022AA711CB10021022221716271BD
:1021A00018B100210222017142714323014833809A
:1021B00070BD00BF0400002438B5D0F8D432B0336D
:1021C00050F8235095B1044600F0BCFB05F50371AF
:1021D000D4F8D432C5F80C0204EB8304D5F8040219
:1021E000D4F8C432DB689847002038BD032038BDDE
:1021F000F8B5D0F8D43200EB830EDEF8C05245B308
:1022000001F00F040A4604EB840600EB8606B3696E
:102210006BB9DEF8C43200211B69C5F8141223B172
:1022200005F50471D5F8080298470020F8BDD0F8EC
:10223000C872C4EBC40407EB8404646CB3FBF4F70A
:1022400004FB1733002BE4D11A46B36100F062FBA4
:10225000EBE70320F8BD00BFD0F8D432002200EB3A
:10226000830370B5D3F8C06282B08DF80520ADF855
:10227000062066B191F800C004460D461CF06002CD
:1022800020D0202A06D02946204600F0DFFF032078
:1022900002B070BDCA8891F801E08AB31CF0800FCB
:1022A0004ED0D3F8C432314670469B689847EA88CE
:1022B00031462046072A28BF072201F05BF800209C
:1022C00002B070BD4B780B2BDDD801A252F823F081
:1022D0002D230008BF22000887220008872200085B
:1022E000872200088722000887220008872200082A
:1022F0008722000887220008192300080F230008FE
:10230000D3F8C43270469B6898470020D8E790F80D
:102310009C32032BD3D0B6E790F89C32032BB2D17A
:1023200001220DF1050101F025F8C8E790F89C3273
:10233000032BA8D102220DF1060101F01BF8BEE724
:10234000402A314686F800E228BF402286F8012262
:1023500001F028F8B3E700BF38B504460025812115
:1023600000F094FA01212046258700F08FFA82219F
:102370002046A4F8785100F089FAD4F8D432E56404
:1023800004EB8303D3F8C0228AB1D3F8C4325B686C
:102390009847D4F8D432B03354F8230010F0F0FD4D
:1023A000D4F8D432B03344F82350C4F8BC520020DF
:1023B00038BD00BFF8B5044601214FF4077010F096
:1023C000BBFDD4F8D4320546B03344F823000028CE
:1023D00050D0237CC4F8BC02B3B340230222812135
:1023E000204600F045FA01214023022220462187A1
:1023F00000F03EFA0127102208238221A4F84E2083
:1024000020460322A4F8787100F032FAD4F8D432CE
:102410000026A4F84C7004EB8303C5F80462D3F8DB
:10242000C4321B689847D5F80422C5F81462C5F871
:102430001862FAB1237CBBB94FF4007339462046C9
:1024400000F074FA0020F8BD4FF4007302228121DD
:10245000204600F00DFA01214FF4007302222046BD
:10246000218700F005FAC5E740233946204600F0F1
:102470005DFAE7E70220F8BD70B5822106460F48F5
:1024800000F014FC012105460C4800F00FFC8121EE
:1024900004460A4800F00AFC0DB11022AA711CB1D2
:1024A000002140226171227118B100214022417146
:1024B000027143230148338070BD00BF0400002433
:1024C000034639B1D0F8D422002003EB8203C3F8CD
:1024D000C412704703207047D0F8D432B03350F89C
:1024E00023302BB10020C3F80812C3F81022704724
:1024F00003207047D0F8D432B03350F823301BB1EA
:102500000020C3F80412704703207047D0F8D4327B
:10251000B03350F8232092B110B5D2F814420CB168
:10252000012010BD01238121C2F81432D2F81032EB
:10253000D2F80822C36200F0EDF9204610BD032056
:10254000704700BFD0F8D422B03250F822208AB1B0
:10255000D2F8042208B5037C2BB14023012100F0FE
:10256000E5F9002008BD4FF40073012100F0DEF909
:10257000002008BD0320704700200349034A044B94
:10258000086010601870704768B6022464B60224B0
:1025900060B6022400207047F8B5144F0B6801465E
:1025A0003A680BB300F1FF3C114D124E0CEB030ED9
:1025B00005E01CF8014FF445B4541A460BD0531CE7
:1025C0002C68B3F5805F28BF00239C42F1D10A48F4
:1025D00001241346047009483B60FFF78BFF07484E
:1025E000FFF7B0FF0020F8BD1346F4E768B60224F9
:1025F00064B602246CB6022460B602247CAB0224CA
:1026000010B509490024094A094B0C6009481460B7
:10261000224609491C70FFF75FFF08490548FFF78C
:1026200069FF204610BD00BF68B6022464B60224CC
:1026300060B602247CAB022460B2022460B402249F
:1026400020280CD0212801D0002070470A4B1868A0
:102650009A889B79086000208A808B717047064BAE
:1026600088888A7910B40C68988000209A711C6060
:102670005DF8044B704700BFA400002410B50F4C58
:10268000D4F8D43294F89CC2B03354F823309BB1C0
:102690005FFA8CFCBCF1030F0ED1D3F814320BB1EE
:1026A000012010BD0A4601462046FFF715FF2046CF
:1026B000BDE81040FFF72ABF032010BD7CAB022409
:1026C00009B384460020114A0CF1FF3CF0B4104DD0
:1026D0000746104E14682B689C420DD014680130D8
:1026E0001368345D01330CF8014FB3F5805F05D2F8
:1026F00081421360EED10846F0BC704781421760FA
:10270000E8D10846F8E70846704700BF64B60224DF
:1027100068B602246CB60224014B1878704700BFDB
:1027200060B60224014B00221A70704760B6022482
:1027300000F57171D0F8040400F04CB9C1EBC1038D
:1027400000EB8303D0F80404D3F8082200F072B938
:10275000C1EBC10300EB8303D0F804049A6C00F0D2
:10276000A3B900BFD0F8040400F04CBAC16810B59A
:10277000044611B102290AD10121D4F8040400F061
:1027800021FAD4F80404BDE8104000F0EDB9FFF7D9
:1027900015F90121F1E700BF10B50446D0F8040493
:1027A00000F014FA2268D2F8003E43F00103C2F8A8
:1027B000003E236A23B1034A136943F00603136101
:1027C00010BD00BF00ED00E0D0F8040400F00EBA28
:1027D000D0F8040400F03CBAD0F8040400F022BAA7
:1027E000D0F8040400F04ABAD0F8040400F048BA63
:1027F00002780AB10020704738B50121144B022439
:10280000144DC3F80404C0F8C83218461D60DC60DB
:102810009C611961C3E90712C3E90922C3E90B22CC
:1028200009225A6007F040FA78B98021084807F079
:10283000F9FF40220021064807F076FF802201219F
:10284000034807F071FF002038BDFFF7B7F8ECE749
:1028500058AE02240000084008B5D0F8C80207F0BE
:10286000B3FA18B102280CBF0120032008BD00BF35
:102870009446D0F8C8021A4608B5634607F01AFE17
:1028800018B102280CBF0120032008BD08B5D0F8FC
:10289000C80207F047FE18B102280CBF0120032030
:1028A00008BD00BF08B5D0F8C80207F0C3FE18B1D4
:1028B00002280CBF0120032008BD00BF08B5D0F8D6
:1028C000C80207F0F9FE18B102280CBF012003204E
:1028D00008BD00BF0A06D0F8C83206D4C1EBC1015A
:1028E00003EB810393F8FE01704701F07F01C1EB18
:1028F000C10103EB810393F83E00704708B5D0F89F
:10290000C80207F0C1FD18B102280CBF0120032046
:1029100008BD00BF08B5D0F8C80207F063FE18B1C3
:1029200002280CBF0120032008BD00BF08B5D0F865
:10293000C80207F027FE18B102280CBF01200320AF
:1029400008BD00BFD0F8C80207F042BE78B100232E
:10295000C0F8B832C0F8C432C0F8D03209B1C0F8FB
:10296000B4120123027080F89C32FFF741BF0320AC
:10297000704700BF10B5002382B0ADF8063089B1B2
:10298000CB6A0446C0F8B81223B10DF1060098478F
:10299000C4F8D002D4F8D83200200133C4F8D832B9
:1029A00002B010BD032002B010BD00BFFFF754BF3E
:1029B000D0F8B8320BB11B6818471846704700BFF3
:1029C00008B5D0F8B8325B689847002818BF0320D4
:1029D00008BD00BF38B500F2AA250446284600F01D
:1029E00029FCB4F8B03294F8AA120122C4F8983243
:1029F00001F01F03C4F8942293420ED0022B06D09C
:102A00008BB929462046BDE8384000F065B9294613
:102A10002046BDE8384000F05FBB29462046BDE8AF
:102A2000384000F019BB204601F08001BDE8384075
:102A3000FFF738BF70B5044631B90B46D0F8941291
:102A4000032910D0002070BD90F89C32032BF9D1DF
:102A5000D0F8B8329B69002BF4D00022BDE870405A
:102A6000C0F8D4221847D0E95715A94208D890F8E1
:102A70009C22032A0FD0204600F0ACFC002070BD41
:102A80004B1B11462A469D42C0F85C3128BF1A46AE
:102A900000F096FCD6E7D0F8B8221269002AEAD0F6
:102AA000C0F8D4329047E6E770B5044659B9D0F87B
:102AB0009432022B16D094F8A03213B1002384F87C
:102AC000A032002070BD90F89C32032BF9D1D0F8D1
:102AD000B8325B69002BF4D00022BDE87040C0F82A
:102AE000D4221847D0E907360D46B34210D81CD07F
:102AF00094F89C32032B2BD080212046FFF7D2FE86
:102B0000204600F073FC94F8A032002BD9D0D5E712
:102B10009B1B1146C3611A4600F03AFC2B462A461D
:102B200029462046FFF702FFC5E782699342DFD8B6
:102B3000D0F898329A42DBD20A4600F029FC2B46A4
:102B40002A4629462046C4F89852FFF7EFFEB2E71E
:102B5000D4F8B832DB68002BCED000222046C4F86F
:102B6000D4229847C8E700BFF8B500210122D0F869
:102B7000B832044680F89C224160C0F89412C0F834
:102B8000A41280F8A0121BB15B680BB19847B0B9D2
:102B90000027002240250126402311462046FFF74A
:102BA00067FE2B46002280212046C4F86051A4F81D
:102BB0006461FFF75DFE3846A6842562F8BD0327F1
:102BC000E7E700BF034600201974704790F89C2285
:102BD0000346042A04D090F89C22D2B280F89D22A9
:102BE0000422002083F89C22704700BF90F89C329A
:102BF000042B04D190F89D32DBB280F89C32002087
:102C0000704700BF90F89C22032A01D00020704733
:102C100008B5D0F8B83213B1DB6903B1984700208A
:102C200008BD00BFD0F8D422AE3250F8222062B1E5
:102C300008B590F89C32032B01D0002008BD136A20
:102C4000002BFAD09847002008BD0320704700BF32
:102C5000D0F8D422AE3250F8222062B108B590F8F4
:102C60009C32032B01D0002008BD536A002BFAD000
:102C70009847002008BD0320704700BF0020704720
:102C80000121D0F8B82280F89C1242B15268017933
:102C900008B5904708B9002008BD032008BD0020F2
:102CA000704700BF00207047002070470278B0F8DE
:102CB00002C01346944503D80CE09C450AD902781B
:102CC0001044134442789BB2052AF6D182788A4296
:102CD000F3D170470020704770B50B7882B00D4675
:102CE000044603F06003202B28D0402B26D05BB194
:102CF00080212046FFF7D6FD00212046FFF7D2FDB8
:102D00000025284602B070BD4B78092BF0D801A2EF
:102D100052F823F08D2D0008B52D0008F12C000885
:102D2000D32D0008F12C0008EB2D00082D2E0008F3
:102D3000F12C0008612E0008552D0008D4F8D4327B
:102D400029462046AE3354F823309B6802B0BDE8D4
:102D5000704018478978B34D0129297000F24881E5
:102D600090F89C32022BDEB200F02881032E00F096
:102D700005818021FFF796FD00212046FFF792FD97
:102D800029782046FFF71CFE0325BAE790F89C320D
:102D9000013B022BACD8CA88022AA9D1D0F8A432B0
:102DA0000146003B18BF01235B0041F80C3F00F0D7
:102DB000E1FAA5E790F89C32013B022B98D84B88AA
:102DC000012B9DD100232046C4F8A43200F002FB61
:102DD00096E74B88012BF6D0022B89D18B881B0AF2
:102DE00080F8A03200F0F6FA8AE78B88002B7FF497
:102DF0007FAFCB88002B7FF47BAF4B887F2B3FF6D8
:102E000077AF90F89C22032A3FF472AFDDB22946D7
:102E100080F89E52FFF772FD204600F0DBFA002D8D
:102E200000F0FC80022384F89C3269E74A88002184
:102E3000130AADF80610013B062B3FF659AF01A16E
:102E400051F823F0F52E0008DB2E0008052F0008AE
:102E5000F12C0008F12C0008C52E0008892E00086E
:102E6000CA88012A7FF444AF90F89C32022BD9B271
:102E700000F2B78000293FF43BAF0146002341F840
:102E8000083F00F077FA3BE7037C002B7FF430AF7C
:102E9000D0F8B8320DF106001B6B9847072343703A
:102EA000EB88002B66D0BDF80620002A3FF420AF47
:102EB0009A420146204628BF1A46ADF8062000F087
:102EC00059FA1DE7037C002B7FF412AFD0F8B8321B
:102ED0000DF106005B6B9847E2E7027CD0F8B83250
:102EE000002A40F08D809B6A0DF10600984702236E
:102EF0004370D5E7D0F8B4320DF10601007C1B68B1
:102F00009847CDE7D1B2052900F28E80DFE801F0C5
:102F100026201A140E03D0F8B4329B69002B3FF41C
:102F2000E7AE0DF10601207C9847B9E7D0F8B4323E
:102F30005B69002BF5D1DBE6D0F8B4321B69002BBE
:102F4000EFD1D5E6D0F8B432DB68002BE9D1CFE67B
:102F5000D0F8B4329B68002BE3D1C9E6D0F8B43284
:102F60005B68002BDDD1C3E60223416080F89C3210
:102F7000FFF726FD204600F02DFAC1E60029F3D028
:102F800041680129F6D0C9B2FFF71AFD2978204619
:102F90006160FFF70DFD05460028EBD0802120463B
:102FA000FFF780FC00212046FFF77CFC21792046BA
:102FB000FFF706FD022384F89C32A2E60029D9D04F
:102FC00001214160FFF7F4FC054600B38021204653
:102FD000FFF768FC00212046FFF764FC84F89C6240
:102FE0008FE603297FF484AE011D00F0C3F987E664
:102FF0008021FFF757FC00212046FFF753FCC3E672
:10300000DB6A0DF1060098470223437048E720462B
:1030100000F0E0F9032384F89C3271E6012384F880
:103020009C326DE66CC60224D0F8D83273B1D0F869
:10303000B8329B6B43B10022C0F8D4220DF10602D6
:10304000984700287FF42CAF002029E7EB88002B5D
:103050007FF44EAE8EE700BF38B50B780D460446C0
:103060005A060DD503F06002402A09D08021FFF7EF
:1030700019FC00212046FFF715FC0025284638BD25
:1030800094F89C32013B022B19D82979022916D8D1
:103090002046FFF707FED8B9D4F8B8329B68BBB119
:1030A0002946C4F8D40220469847EB880546002BF1
:1030B000E4D10028E2D1204600F08CF9DEE780213F
:1030C0002046FFF7EFFB00212046FFF7EBFBD4E79C
:1030D0000325284638BD00BF30B50C468A8883B02A
:1030E00005462378D1B203F06003202B48D0402B53
:1030F00046D053B180212846FFF7D4FB0021284653
:10310000FFF7D0FB002003B030BD6378012B26D041
:10311000032B47D0002BEDD190F89C32022BD8B274
:103120005BD00328E6D101F00F03120603EB830303
:1031300005EB830362D4B3F86431002BDAD001EBE2
:1031400081040B4605EB840404F5AA74002B61D1BD
:10315000022221462846236000F00CF9D2E790F8BD
:103160009C32022BDAB22FD0032AC3D16388002B02
:10317000C8D14B0655D12846019100F02BF9019991
:103180002846FFF791FD0028BCD1D5F8B832C5F824
:10319000D4029B68002BB5D02146284603B0BDE879
:1031A0003040184790F89C32022BDAB20CD0032A38
:1031B000A0D1638823B9480602D0E388002B35D01C
:1031C000284600F007F99DE74A0693D0FFF76AFB0F
:1031D00080212846FFF766FB94E748068AD111064E
:1031E0004FF000034FF0020228464CBF05F11401D6
:1031F00005F5AA710B6000F0BDF883E79B8C002BEE
:103200003FF478AF01F07F035C1C04EB840405EB12
:1032100084049BE72846FFF75DFB031E18BF0123CC
:1032200096E70191FFF74AFB0199A4E72846FFF7CB
:1032300039FBC5E70B7803704B7843704B884380AC
:103240008B888380CB88C380704700BF10B504464D
:103250008021FFF727FB00212046BDE81040FFF743
:1032600021BB00BF30B370B503780E460546144647
:103270000BB3034613F8011F0029FBD1681CFDF7AF
:1032800095F8431CDBB201335B00DAB223800323E1
:10329000327073702C7864B12846022300215A1CC6
:1032A000F4540233D2B2DBB2B15410F8014F002C07
:1032B000F5D170BD704702221346E7E7122301489B
:1032C0000B807047CC000024042301480B8070471A
:1032D000C80000240A460348034908B5FFF7C2FFA7
:1032E000014808BD083C010870C602240A46064988
:1032F00008B520B90548FFF7B5FF034808BD0448E5
:10330000FFF7B0FF004808BD70C602241C3C01084E
:10331000403C01080A460348034908B5FFF7A2FFED
:10332000014808BD643C010870C602240A460348EF
:10333000034908B5FFF796FF014808BD703C010836
:1033400070C602241A204FF03013084A088008483B
:10335000C0F80230C0F80630C0F80A30C0F80E20BD
:10336000C0F81230C0F81630704700BF300043007C
:10337000AC00002410B5134602240A460021C0F810
:103380009442C0E90633FFF7C5FA002010BD00BF24
:103390008C46002108B513466246FFF7BBFA0020B1
:1033A00008BD00BF10B5134603240A460021C0F82B
:1033B0009442C0E95633FFF7B9FA002010BD00BFB0
:1033C0008C46002108B513466246FFF7AFFA00208D
:1033D00008BD00BF002310B504241A461946C0F8E2
:1033E0009442FFF797FA002010BD00BF002310B5EC
:1033F00005241A461946C0F89442FFF797FA0020B0
:1034000010BD00BF30B587B0012514460A460DF146
:10341000170301958DF81740017900930223846802
:1034200029440068029406F075F9003818BF01209D
:1034300007B030BD10B5134684B00A46009302238E
:10344000846801790068029401240131019406F036
:1034500089FA003818BF012004B010BD002800F020
:10346000DE80782264232DE9F0476E4C00264FF071
:103470000108082544F2560A86B007462060FA2063
:1034800089462271A3602174E66084F8118003F0FC
:10349000D1FA2068E681ADF8106000283FD021798C
:1034A000A36878295BD040F2FF12009302238DF8C5
:1034B0001080ADF8142005AA05F086FF00282DD154
:1034C000A36805AA217900931C23013120688DF897
:1034D0001430012305F078FF2179A36804AA013193
:1034E00000930123206806F043F8B8B9A36805AA41
:1034F000217900931D23013120688DF814300123B8
:1035000005F062FF2179A3680DF1110201310093EA
:103510000123206806F02CF800284BD0E66097F8CD
:103520004130202B15D0384605F034FF052003F03C
:1035300081FA384605F0D8FE4B2003F07BFA013DB6
:10354000A7D17822002301202271E36006B0BDE8F4
:10355000F0874B2003F06EFA013D9AD1F1E7CDE9F7
:10356000018304AB43F20A0279210093022306F09F
:10357000F9F90028D2D1CDF8048043F20B02A368F8
:10358000217902930DF11103013100930223206888
:1035900006F0E8F90028C1D1A081BDF810305ABA70
:1035A0005345E281BBD1484600F03EF8002006B00A
:1035B000BDE8F087BDF8103005AA21795BBA01316A
:1035C000A381A36800930A2320688DF81430012397
:1035D00005F0FAFE2179A36804AA013100930123C2
:1035E000206805F0C5FFB8B9A36805AA2179009342
:1035F0000B23013120688DF81430012305F0E4FE1F
:103600002179A3680DF11102013100930123206893
:1036100005F0AEFF0028C0D00023E3817FE7012042
:10362000704700BF70C802242DE9F04F11228BB003
:1036300043F203110546D748FFF7E4FED64C822239
:1036400043F20801D348FFF7DDFE052003F0F2F94D
:10365000237853B16178A27841EA0321CD48FFF77E
:10366000D1FE14F8033F002BF4D1CA4C4FF49670EE
:10367000012603F0DFF961224FF4864120462574CC
:103680006674FFF7BFFE324645F21F012046DFF8A1
:103690002083FFF7B7FE43F621010DF127022046F4
:1036A000FFF7C8FE9DF8272043F62101204602F0CF
:1036B000DF02BA4DFFF7A6FE0DF1270243F2020129
:1036C0002046FFF7B7FE9DF8272043F2020120466F
:1036D00042F01C02FFF796FE0DF1270243F20601AD
:1036E0002046FFF7A7FE9DF8272043F2060120465B
:1036F00002F0D702FFF786FEB8F80030002B40F04A
:103700002682237C627C05EB830135F823A0022A04
:10371000B1F802B000F00182043A012A40F20182BD
:1037200000220392072B00F0D481BAF5226F00F239
:10373000D081BBF5F36F00F2CC81994A994B168882
:103740001F885645984D994C38BF56465F451680A0
:1037500038BF5F46D6F5226201961F8048BF01320E
:10376000B5F90030D7F5F36102974FEA620248BF1E
:1037700001319342C2F1000C4FEA6101A8BF134628
:10378000B4F900206345B8BF63468A42A8BF0A4621
:1037900049421BB28A422B80B8BF0A46BAEB560F89
:1037A0004FEA560112B2228000F2C581BBEB570FDF
:1037B0004FEA570400F2BF814FF0020CCDE901142B
:1037C00031210124CDE9061406F11001DDED017A65
:1037D00007EE10AA07F1080989B2F8EEE76AB8EE19
:1037E000476ADDED027AC1F522651FFA89F9F8EE24
:1037F000E77A0F36002D2C4686EE867A06EE90BAD2
:10380000B8BFEC1C002BC9F5F36E07F107074FEAB0
:10381000A404B8BF013304EB6303F8EE666A6FF0EB
:1038200007045B0087EEA66A07EE90AAAB42A8BF2A
:103830002B46A342F8EEE77AB8BF2346BEF1000F4D
:1038400003F110039CB27346B8BF0EF10303002AC4
:103850002644B8BF01329B10B6B2A3EB62036FF0EF
:103860000302B4EEC76A5B007345A8BF7346934278
:10387000B8BF1346F1EE10FAB1FBFCF137FE067A41
:1038800067EE877A9D1DA8F800100B46ADB2FCEEDE
:10389000E77A2F4417EE902A07EE90BABFB2F8EEFF
:1038A000E77A92B28A1A67EE877A48BF0132FCEE55
:1038B000E77A5010C2F34F020190029217EE902A5D
:1038C000B9FBFCF992B2B9EB020248BF01325010C9
:1038D000C2F34F020592039A0490002A00F032814D
:1038E000BAF5A06F06D80AF104031BB25B008B4245
:1038F000B8BF0B4609F1180903F1FC0840F29E52CB
:103900004FF46051B9F1F80F2248B8BF4FF0F809F1
:103910009045B8BF9046220AFFF774FD43F60101B7
:10392000E2B21C48FFF76EFD43F602012A0A19486D
:10393000FFF768FD43F60301EAB21648FFF762FDA0
:1039400043F60401320A1348FFF75CFD43F6050114
:10395000F2B21048FFF756FD43F606014FEA1A256A
:103960000C483A0AFFF74EFD43F60701FAB2094840
:103970005FFA8AFAFFF746FD43F608014FEA1B2477
:103980002A4604485FFA8BFBFFF73CFD43F609012A
:1039900052460FE070C80224AC4301082C430108D2
:1039A000FE000024FC00002486C8022484C80224EF
:1039B00088C802248048FFF725FD43F60A01224605
:1039C0007D48FFF71FFD43F60B015A467A48FFF783
:1039D00019FD43F60C01C8F307227748FFF712FDE3
:1039E00043F60D015FFA88F27348FFF70BFD43F6CB
:1039F0000E01C9F307227048FFF704FD43F60F01DB
:103A00005FFA89F26C48FFF7FDFC029B43F6100158
:103A100069481A0AFFF7F6FC9DF8042043F61101E5
:103A20006548FFF7EFFC059B43F6120162481A0A4E
:103A3000FFF7E8FC9DF8102043F613015E48FFF7FE
:103A4000E1FC069E43F614015B483246FFF7DAFCC0
:103A5000324643F615015848FFF7D4FC0DF1270212
:103A600043F620015448FFF7E5FC9DF82720079E08
:103A700043F6200122F001024F483243FFF7C2FC17
:103A80000DF1270243F621014B48FFF7D3FC9DF8C7
:103A9000272043F62101484822F001023243FFF774
:103AA000B1FC2A4644F202614348FFF7ABFC5246A0
:103AB00044F203614048FFF7A5FC224644F204614A
:103AC0003D48FFF79FFC5A4644F205613A48FFF72C
:103AD00099FC0DF1270243F621013748FFF7AAFCB4
:103AE0009DF8272043F62101334802F0F902FFF741
:103AF00089FC0DF1270243F620012F48FFF79AFCBD
:103B00009DF8272043F620012B4842F00602FFF7DC
:103B100079FC01200BB0BDE8F08F4AEA0B02560792
:103B2000D7D10D2B3AD843F21202DA40D507D0D4C0
:103B300001220392F6E5112100204FF0010CCDE99E
:103B4000061041E6BAF5207F7FF6D4AECBE6617C65
:103B50001E46227C081F35F82220012821D902297F
:103B60001FD0B2F5207F05D9131D5B009E42B8BF60
:103B70001E46B6B2FC3640F29E5343F60C010E4888
:103B80009E42B8BF1E46C6F30722FFF73BFC43F632
:103B90000D01F2B20848FFF735FCB2E501230393AB
:103BA000C3E5B2F5A06FE5D8043212B256009E42CA
:103BB000B8BF1E46DEE700BF70C8022438B5042136
:103BC0000D4809F04BF988B90C4D0D4C2B7820604D
:103BD0006BB100F09DFA48B900F006FF4FF4167380
:103BE0002A78236012B9044A1268936338BD024AE6
:103BF00012689363EDE700BF30AB022492C8022441
:103C000094C802240E4B02689A4200D070470D4AB5
:103C10000D491368B3F57A7F94BF0A33002313600C
:103C20000A689A4205D801224FF48061074805F0DE
:103C30001FBA00224FF48061044805F019BA00BF92
:103C4000004401408CC8022494C802240010025889
:103C500000F0CABE10B4BDF8044001945DF8044BF6
:103C600000F07ABE10B4BDF8044001945DF8044B36
:103C700000F0C6BE2DE9F04FC9B0DDF84C819DF8CB
:103C800048B10590B8F1000F00F0E58098F800C049
:103C90000B4402448A46ACF1200C9BB296B25FFA08
:103CA0008CFC0293BCF15E0F00F2D580BBF10C0FCF
:103CB00018BFBBF1100F4FEA5B090BEB0107CDF802
:103CC00010B014BF0123002303930BFB09F3012B56
:103CD000079338BF0123069300EB0905B54205D9C8
:103CE0001FFA87FADDE9043003EB0A07029B9F42C3
:103CF00000F2B180039B002B40F0B080862800F2D8
:103D0000AD80BAF1EF0F00EB090500F29980872D25
:103D100000F29680F02F00F29380824B079AB3F85E
:103D200000E0814B012A9EFA9EFEB3F800B01FFA14
:103D30008EFE9BFA9BFB1FFA8BF340F2EF80039CF5
:103D400008AA63F30F0463F31F44069B5908134644
:103D500002EB810143F8044B8B42FBD1069BD90750
:103D600003D523F0010322F813B0049B0C2B78D069
:103D70006E4B002403EB0C1C21461CF9013F002B69
:103D800005DA4FEAC40B0BEB510B22F81BE013F0E2
:103D9000400F07D004F1010B4FEACB0B0BEB510B9B
:103DA00022F81BE013F0200F07D004F1020B4FEABA
:103DB000CB0B0BEB510B22F81BE013F0100F07D0CD
:103DC00004F1030B4FEACB0B0BEB510B22F81BE07A
:103DD00013F0080F07D004F1040B4FEACB0B0BEBE9
:103DE000510B22F81BE013F0040F07D004F1050B70
:103DF0004FEACB0B0BEB510B22F81BE013F0020F39
:103E000007D004F1060B4FEACB0B0BEB510B22F85A
:103E10001BE0DB0705D5E31DDB0003EB510322F8B4
:103E200013E00131B4FA84F4C9B2640910294FEAED
:103E3000C404A2D1049B514600934B4600F0E0FD20
:103E400018F801CFA8B2ACF1200C5FFA8CFCBCF1E1
:103E50005E0F7FF641AF49B0BDE8F08F00EB09057A
:103E6000EEE70CEB4C0C324B002403EB8C0B2146A1
:103E70001BF9013F002B07DA04EB440C4FEA4C0C12
:103E80000CEB510C22F81CE013F0400F09D004F1A8
:103E9000010C0CEB4C0C4FEA4C0C0CEB510C22F8C7
:103EA0001CE013F0200F09D004F1020C0CEB4C0CB9
:103EB0004FEA4C0C0CEB510C22F81CE013F0100FE5
:103EC0001ED14CBB1C0703D54C08183422F814E053
:103ED0005C0703D54C081E3422F814E09C0703D578
:103EE0004C08243422F814E0DB0703D54B082A33AE
:103EF00022F813E008240131C9B20C29B8D199E79E
:103F000004F1030C0CEB4C0C4FEA4C0C0CEB510C79
:103F100022F81CE0002CD5D00024ECE7039B08AA73
:103F200021E700BF0001002490C8022403470108D4
:103F3000F34C0108002A00F0E480002B00F0E1803F
:103F4000862800F2DE80EF2900F2DB80944682189A
:103F5000872A30B585B003D9C0F1870C1FFA8CFCD5
:103F6000CA18F02A00F2C980002401F12802273182
:103F7000C2F3072592B20B4421468DF8084065F341
:103F800007011FFA83FEC3F3072362F30F212246C2
:103F900063F317412A238DF8073000F134036EF3E1
:103FA0001F6135309C4403914FF400619CFA9CFCE6
:103FB0008DF809005448ADF80AC005F059F82246BA
:103FC0004FF40051504805F053F801220DF107015C
:103FD0004FF47A734D4808F0B5FA044601224FF4C5
:103FE00000614948002C40F0858005F041F82246E8
:103FF0004FF40061444805F03BF801224FF40051B2
:10400000414805F035F84FF47A73042202A93F487D
:1040100008F098FA0446002862D101224FF40061AA
:10402000394805F025F82B2322464FF40061364825
:104030008DF8073005F01CF822464FF40051324845
:1040400005F016F84FF47A7301220DF107012F489D
:1040500008F078FA0446002842D101224FF40061AA
:10406000294805F005F822464FF40061264804F07F
:10407000FFFF01224FF40051234804F0F9FF4FF4F1
:104080007A73042203A9214808F05CFA044638BB7D
:1040900001224FF400611C4804F0EAFF2C23224661
:1040A0004FF4006118488DF8073004F0E1FF224614
:1040B0004FF40051144804F0DBFF01220DF1070119
:1040C0004FF47A73114808F03DFA044601224FF488
:1040D00000610D4874B904F0CBFF204605B030BD37
:1040E00001224FF40061084804F0C2FF4FF0FF3096
:1040F00005B030BD04F0BCFFF8E7C1F1F0039BB29E
:1041000032E74FF0FF3070470010025850AA0224E7
:1041100030B501228BB04FF40061D64804F0A8FFFF
:1041200001224FF40051D34804F0A2FF01240A20D9
:1041300002F080FC00224FF40061CE488DF8184058
:1041400004F096FF00224FF40051CA4804F090FF9B
:104150004FF47A73224606A9C74808F0F3F90028FD
:1041600040F0E783054622464FF40061C14804F061
:104170007FFF962002F05EFC11232A464FF4006177
:10418000BC488DF8183004F073FF2A464FF40051F4
:10419000B84804F06DFF224606A94FF47A73B6487A
:1041A00008F0D0F9054622464FF40061B148002DD1
:1041B00040F0C98304F05CFF782002F03BFC5522FC
:1041C0003A234FF40061AB488DF818202A468DF849
:1041D000083004F04DFF2A464FF40051A54804F082
:1041E00047FF4FF47A73224602A9A34808F0AAF9C0
:1041F0000546002840F09D8322464FF400619D480B
:1042000004F036FF2A464FF400619A4804F030FF6C
:1042100022464FF40051974804F02AFF4FF47A7376
:10422000224606A9944808F08DF90546002840F07A
:10423000808322464FF400618E4804F019FF0A2063
:1042400002F0F8FBC8232A464FF400618DF81830BD
:10425000362388488DF8083004F00AFF2A464FF4C8
:104260000051844804F004FF4FF47A73224602A9F7
:10427000814808F067F90546002840F05A83224635
:104280004FF400617B4804F0F3FE2A464FF40061CE
:10429000784804F0EDFE22464FF40051754804F0D2
:1042A000E7FE4FF47A73224606A9734808F04AF9EC
:1042B0000546002840F03D8322464FF400616D48DA
:1042C00004F0D6FE6D4B2A464FF40061069333236B
:1042D00068488DF81C30B2238DF8083004F0C8FE11
:1042E0002A464FF40051634804F0C2FE4FF47A733B
:1042F000224602A9604808F025F90546002840F04A
:10430000188322464FF400615A4804F0B1FE2A4651
:104310004FF40061574804F0ABFE22464FF40051C1
:10432000544804F0A5FE4FF47A73052206A95248BA
:1043300008F008F90546002840F0FB8222464FF4B9
:1043400000614C4804F094FE35232A464FF4006186
:104350008DF81830B72347488DF8083004F088FEF0
:104360002A464FF40051434804F082FE4FF47A731A
:10437000224602A9404808F0E5F80546002840F02A
:10438000D88222464FF400613A4804F071FE2A4672
:104390004FF40061374804F06BFE22464FF40051A1
:1043A000344804F065FE4FF47A73224606A9324879
:1043B00008F0C8F8002840F0BC8201224FF40061E8
:1043C0002C4804F055FE1921BB23002229488DF802
:1043D00018104FF400618DF8083004F049FE0022F7
:1043E0004FF40051234804F043FE4FF47A73012246
:1043F00002A9214808F0A6F80446002840F0998256
:1044000001224FF400611B4804F032FE22464FF4B3
:104410000061184804F02CFE01224FF400511548A9
:1044200004F026FE4FF47A73012206A9124808F020
:1044300089F80446002840F07C8201224FF4006194
:104440000C4804F015FE2C22C0234FF400610948EB
:104450008DF8182022468DF8083004F009FE224617
:104460004FF40051034804F003FE4FF47A73012225
:1044700002A905E00010025850AA02240C0C0033D7
:10448000D34808F05FF80446002840F05282012229
:104490004FF40061CF4804F0EBFD22464FF4006179
:1044A000CC4804F0E5FD01224FF40051C94804F066
:1044B000DFFD4FF47A73012206A9C54808F042F8DF
:1044C0000546002840F0358201224FF40061C148C2
:1044D000012404F0CDFDC2232A464FF40061BD48FB
:1044E0008DF808308DF8184004F0C2FD2A464FF4CC
:1044F0000051B84804F0BCFD4FF47A73224602A97B
:10450000B34808F01FF80546002840F01282224602
:104510004FF40061AF4804F0ABFD2A464FF4006150
:10452000AC4804F0A5FD22464FF40051A94804F020
:104530009FFD4FF47A73224606A9A54808F002F8B9
:104540000546002840F0F58122464FF40061A1485D
:1045500004F08EFD12232A464FF400618DF81830C6
:10456000C3239C488DF8083004F082FD2A464FF49E
:104570000051984804F07CFD4FF47A73224602A95A
:10458000934807F0DFFF0546002840F0D28122461D
:104590004FF400618F4804F06BFD2A464FF4006130
:1045A0008C4804F065FD22464FF40051894804F020
:1045B0005FFD4FF47A73224606A9854807F0C2FFD3
:1045C0000546002840F0B58122464FF4006181483D
:1045D00004F04EFD20232A464FF400618DF8183078
:1045E000C4237C488DF8083004F042FD2A464FF47D
:1045F0000051784804F03CFD4FF47A73224602A93A
:10460000734807F09FFF0546002840F0928122463C
:104610004FF400616F4804F02BFD2A464FF400610F
:104620006C4804F025FD22464FF40051694804F01F
:104630001FFD4FF47A73224606A9654807F082FFF2
:10464000002840F0768101224FF40061614804F0B7
:104650000FFD0F21C62300225E488DF818104FF47D
:1046600000618DF8083004F003FD00224FF4005182
:10467000584804F0FDFC4FF47A73012202A9544813
:1046800007F060FF0446002840F0538101224FF4F8
:104690000061504804F0ECFC22464FF400614D48A4
:1046A00004F0E6FC01224FF400514A4804F0E0FC1B
:1046B0004FF47A73012206A9454807F043FF0446E8
:1046C000002840F0368101224FF40061414804F097
:1046D000CFFC4AF2A412D0234FF400613D48ADF85C
:1046E000182022468DF8083004F0C2FC22464FF410
:1046F0000051384804F0BCFC4FF47A73012202A93F
:10470000334807F01FFF0446002840F012810122C1
:104710004FF400612F4804F0ABFC22464FF40061D7
:104720002C4804F0A5FC01224FF40051294804F064
:104730009FFC4FF47A73022206A9254807F002FF76
:104740000546002840F0F58001224FF40061214821
:1047500002AC04F08DFCE0221F4B8DF807200FCB3C
:1047600007C42A4623804FF400611A4804F080FCF5
:104770002A464FF40051174804F07AFC4FF47A733C
:1047800001220DF10701124807F0DCFE0446002863
:1047900040F0CF8001224FF400610E4804F068FC25
:1047A00022464FF400610B4804F062FC01224FF4F2
:1047B0000051084804F05CFC4FF47A730E2202A901
:1047C000034807F0BFFE0546002840F0B28005E030
:1047D00050AA022400100258803C010801224FF424
:1047E00000615A4802AC04F043FCE122584B8DF8BA
:1047F00007200FCB07C42A4623804FF4006153489B
:1048000004F036FC2A464FF40051504804F030FCC6
:104810004FF47A7301220DF107014E4807F092FE22
:104820000446002840F0858001224FF4006147488B
:1048300004F01EFC22464FF40061444804F018FCCA
:1048400001224FF40051414804F012FC4FF47A73F6
:104850000E2202A93F4807F075FE0446002868D1E1
:1048600001224FF40061394804F002FC2123224662
:104870004FF4006135488DF8083004F0F9FB22460A
:104880004FF40051314804F0F3FB4FF47A730122E6
:1048900002A9304807F056FE0446002849D10122FB
:1048A0004FF40061294804F0E3FB132322464FF440
:1048B000006126488DF8083004F0DAFB22464FF4F8
:1048C0000051224804F0D4FB4FF47A73012202A96C
:1048D000204807F037FE60BB01224FF400611B48FF
:1048E00004F0C6FB0A2002F0A5F8292300224FF4A9
:1048F000006116488DF8083004F0BAFB00224FF42E
:104900000051124804F0B4FB4FF47A73012202A95B
:10491000104807F017FE044658B901224FF4006111
:104920000A4804F0A5FB782002F084F820460BB07A
:1049300030BD01224FF40061044804F099FB4FF0B0
:10494000FF300BB030BD04F093FBF8E700100258C5
:10495000903C010850AA022470B5C0B014461E460F
:10496000BDF81051FFF7E6FA002837D12B0A694647
:10497000EDB263F3070065F30F2063F3174065F3AF
:104980001F6040AB41F8040B9942FAD106FB04F4D6
:1049900000224FF400611248640004F069FB012218
:1049A0004FF400510E4804F063FB14B910E0641B8F
:1049B0000ED0B4F5807F25464FF47A73694628BF40
:1049C0004FF480750748AAB207F0BCFD0028EED06E
:1049D00001224FF40061024804F04AFB40B070BD70
:1049E0000010025850AA02240021F023872210B59B
:1049F000044682B008460094FFF7AEFF02B010BD37
:104A0000002B18BF002A70B5BDF8106017D0B6B1E2
:104A1000862814D8EF2912D81C46C3181546872BB0
:104A200002D9C0F18704A4B28B19F02B02D9C1F1CD
:104A3000F006B6B233462246FFF77CFA00B170BDED
:104A400002464FF40061124806FB04F404F010FB28
:104A500001224FF400510E48640004F009FBB4F544
:104A6000004F264629464FF47A7328BF4FF400467C
:104A70000848B2B2354407F065FD08B9A41BEED171
:104A800001224FF400610248BDE8704004F0F0BA22
:104A90000010025850AA022408B500F01FF808BD03
:104AA00001F07EBD01F02EBE01F032BE01F0B8BEB5
:104AB00001F0BABE01F0C0BE01F0C6BE0CB400B534
:104AC00083B0502104AB53F8042B01930EF0CAFBC2
:104AD000002003B05DF804EB02B070472DE9F04F01
:104AE000BF4EDFB0BF4DAE421ED80AAF80220021BC
:104AF0001EA80EF0EEFB5022002138460EF0E9FB16
:104B0000B94A50213846FFF7D9FF0024B748B849C1
:104B10003B4604700C606021B64AB7480EF01CFB9F
:104B200020465FB0BDE8F08F1EAC0AAF80220021A6
:104B3000761B20460EF0CDFB5022002138460EF0A9
:104B4000C8FB7F2EDCD9802229463EA80EF006FC49
:104B5000AA4B3E9A9A421BD1BDF8FC30012B24D0BF
:104B6000022B1CD19DF83921531E0B2B23D8BDF8E5
:104B70000E11012926D89DF83A3151B3002B4DD0A2
:104B8000581E0B2872D89C46901C0CEB800C25E01C
:104B90003EAB9B4A50213846FFF790FFB5E7994A54
:104BA00050213846FFF78AFFAFE7974A5021384631
:104BB000FFF784FFA9E713465021944A3846FFF7D0
:104BC0007DFFA2E70B46924A50213846FFF776FF59
:104BD0009BE7A3BB4FEA820C0CF1070CDDF800E168
:104BE0008C48864507D0009073468B4A5021384642
:104BF000FFF764FF89E70CEB8C00BDF8FEE0C00016
:104C00008F3020F00F0080B270450BD000907346BB
:104C1000824A50213846FFF751FF76E74FF0010CEA
:104C20006346B1E7BDF80C81C4450ED043467C4ACB
:104C300050213846CDF800C0FFF740FF65E7794ABC
:104C400050213846FFF73AFF5FE78642DDF804A1BE
:104C500003D3504501D856450ED20346724A50211F
:104C60003846CDE900A6FFF729FF4EE76F4A5021ED
:104C70003846FFF723FF48E72E186FF07C0BDFF86C
:104C800064E14FF0FF3C0596ABEB050B684EDDF899
:104C90001490CDE9062171460EF1010E0BEB0E02C8
:104CA000032A02D90A788CEA020C4CF30002F1457F
:104CB00002EA060282EA5C0242F3000101EA06010E
:104CC00081EA520141F3000202EA060282EA51023D
:104CD00042F3000101EA060181EA520141F30002B8
:104CE00002EA060282EA510242F3000101EA0601E9
:104CF00081EA520141F3000202EA060282EA51020D
:104D000042F3000C0CEA060C8CEA520CC3D16FEA99
:104D10000C0C5D9E6645DDE9062107D06346454AD9
:104D2000502138460096FFF7C9FEEEE69DF838613F
:104D300006F1FF3CBCF11F0F13D89DED4A7AB5EE8A
:104D4000C07AF1EE10FA06DBF7EE007AB4EEE77AFD
:104D5000F1EE10FA0CD9384A50213846FFF7AEFE72
:104D6000D3E63346354A50213846FFF7A7FECCE656
:104D70009DED4B7AB5EEC07AF1EE10FA04DBB4EE9D
:104D8000E77AF1EE10FA05D92D4A50213846FFF79F
:104D900095FEBAE69DED4C7AB5EEC07AF1EE10FACA
:104DA00004DBB4EEE77AF1EE10FA05D9254A50217A
:104DB0003846FFF783FEA8E6DDED4D7AF5EEC07AC2
:104DC000F1EE10FA06DBB7EE007AF4EEC77AF1EEF8
:104DD00010FA3BD91C4A50213846FFF76FFE94E683
:104DE0000000200800001E08A03C010898C802240A
:104DF0009CC80224383F010804010024435554454F
:104E0000B03C0108503D0108BC3C0108E03C0108F1
:104E1000F03C0108712AE8B3343D0108683D0108FF
:104E2000803D0108183D0108983D0108083D010832
:104E30002083B8EDB43D0108E43D0108D03D0108F0
:104E4000F83D0108043E0108183E01089DF827615D
:104E5000002E40F0A4809DF87361002E40F0408148
:104E6000B346DFF818930597CDE90821D9F8042057
:104E7000BBF1050FD9F800700692D9F80C20079203
:104E800040F22781089A1FFA8BF692000632B2424E
:104E900040F213811BF0010F40F00B8120264FF4EC
:104EA000907E069A724540F0F880079AB24240F030
:104EB000E980B84200F2DE80574500F2DB80AAEBC1
:104EC000070206998A42C0F0D580D9F8082090429E
:104ED00000F2C880524500F2C5800799AAEB02068D
:104EE000B6EB810F4FEA810EC0F0BC80D9F810C03C
:104EF000604500F2AF80D44500F2AC80AAEB0C060E
:104F0000B64500F2A780D9F81460B04200F29A804A
:104F1000564500F29780AAEB06018E4500F292807A
:104F200042EA0C0207F00F07324302F0030252EA92
:104F300007067FD1D9F8182007EE902AF5EEC07A3F
:104F4000F1EE10FA6EDDD9F81C2007EE902AF5EE8E
:104F5000C07AF1EE10FA28DD0BF1010B09F12809F6
:104F60001FFA8BF2904581D8059F284405EB0A0370
:104F70004FF0FF326C4998421FD010F801CB82EA03
:104F80000C024FF0080C42F3000E0CF1FF3C0EEA4D
:104F9000010E1CF0FF0C8EEA5202F4D1EBE7634ADB
:104FA00050213846FFF78AFDAFE5059F5B46604A12
:104FB00050213846FFF782FDA7E5D343429883424C
:104FC00006D0009050215B4A3846FFF777FD9CE5FC
:104FD00080223EA920460EF0C1F9574B01221B68E2
:104FE0003B801B0C8DF82A30544B1A70E38A544ACC
:104FF000DB07156004D594F84260012E38BF012606
:10500000E16824ABA28894F84100CDE90221CDE902
:1050100000064C4A60214C480EF09EF801205FB01B
:10502000BDE8F08F059F5B46484A50213846FFF7A0
:1050300045FD6AE5059F5B46454A50213846FFF726
:105040003DFD62E5059F5B46424A50213846FFF729
:1050500035FD5AE5059F5B463F4A50213846FFF72C
:105060002DFD52E5059F5B463C4A50213846FFF72F
:1050700025FD4AE5059F5B46394A50213846FFF732
:105080001DFD42E507995B46059F00915021354A79
:1050900038460196FFF712FD37E506995B46059FF6
:1050A00000915021304A3846CDF804E0FFF706FD64
:1050B0002BE510264FF4007EF3E60999D1B9B242F0
:1050C00014D0059F5B46294A50213846FFF7F6FC6D
:1050D0001BE5274A52F82BE0264A52F82B60E0E6FF
:1050E000254A50213846FFF7E9FC0EE505264FF02A
:1050F000A00ED6E603F1FF3CBCF10B0FE1D81A4439
:10510000B24209D802F1010292B209D0B242D8D11A
:1051100004264FF0800EC4E620264FF4806EC0E6D1
:1051200001264FF0200EBCE62083B8ED2C3E01088E
:10513000043F0108183F0108343F010898C80224C1
:105140009CC80224483F010804010024F43E0108E1
:10515000E43E0108D43E0108C43E0108B43E010803
:10516000A03E0108843E0108643E0108583E010843
:105170008051010868510108403E010880001E0866
:10518000044B187820B1044B1868003818BF012070
:10519000704700BF98C802249CC80224024B1878AC
:1051A00008B1024B1868704798C802249CC80224B2
:1051B0000B4B1A78034682B10A4A106870B1828A92
:1051C0009A420AD903EB8303C288DB0003F1A801EA
:1051D0008033914201D8184470470020704700BFC7
:1051E00098C802249CC802240B4B02461B788BB142
:1051F0000A4B186878B1838A93420BD902EB82027A
:10520000C388D20002F1A8018032994202D88358A3
:10521000184470470020704798C802249CC8022494
:105220000C4B1A78034692B10B4A106880B1828AFF
:105230009A420CD903EB8303C288DB0003F1A80177
:105240008033914203D803449B6818447047002080
:10525000704700BF98C802249CC802240C4B1A78DF
:10526000034692B10B4A106880B1828A9A420CD9E7
:1052700003EB8303C288DB0003F1A8018033914272
:1052800003D803441B69184470470020704700BFCF
:1052900098C802249CC802240C4B1A78034692B189
:1052A0000B4A106880B1828A9A420CD903EB8303BF
:1052B000C288DB0003F1A8018033914203D8034484
:1052C0005B69184470470020704700BF98C80224EB
:1052D0009CC80224084B187840B1084B186828B1C4
:1052E0008388012B06D0022B01D00020704790F854
:1052F000410070470520704798C802249CC80224CA
:10530000074B187830B1074B186818B18388022B07
:1053100001D000207047C08A00F00100704700BF34
:1053200098C802249CC802240C4B187878B10C4B06
:10533000186860B18388022B01D000207047C38AAF
:1053400013F00103F9D090F8420008B9012070472A
:10535000431E0B2B88BF0020704700BF98C8022453
:105360009CC802240B4B1B783BB10B4B1B6823B131
:105370009A88012A0BD0022A02D04FF6FF7070479C
:1053800093F841000028F8D08000063070471A20BA
:10539000704700BF98C802249CC80224164B1B7893
:1053A0003BB1164A126822B19188012901D0022925
:1053B00002D04FF6FF70704792F84110B1B18900EA
:1053C00000230631B2F816C01CF0010FF1D092F89C
:1053D000422072B102F1FF3CBCF10B0FE9D89042C0
:1053E000E7D2002BE5D1084480B270474FF6FF7139
:1053F000E8E70122F3E700BF98C802249CC8022412
:10540000164B1B783BB1164B1B6823B19A88012AB7
:1054100001D0022A02D04FF6FF70704793F8410086
:10542000DA8A50B1D107F6D5800093F842300630C1
:105430005BB90123184480B27047D207EBD593F8CB
:1054400042304FF6FF7003B970475A1E0B2AE2D85C
:105450004FF6FF729042EDD1DFE700BF98C80224FB
:105460009CC80224164B1B783BB1164B1B6823B11A
:105470009A88012A01D0022A02D04FF6FF707047A5
:1054800093F84100DA8A58B1D107F6D5800093F835
:105490004230063063B901230130034498B27047AB
:1054A000D207EAD593F842304FF6FF7003B9704740
:1054B0005A1E0B2AE1D84FF6FF729042ECD1DEE77C
:1054C00098C802249CC80224064B1B7833B1064BB3
:1054D0001B681BB11B6B00EE103A7047B6EE000A5A
:1054E000704700BF98C802249CC80224064B1B7852
:1054F00033B1064B1B681BB15B6B00EE103A704773
:105500009FED030A704700BF98C802249CC802247C
:105510003333B33E064B1B7833B1064B1B681BB1CC
:105520009B6B00EE103A70479FED030A704700BF77
:1055300098C802249CC80224CDCC4C3D064B1B7855
:1055400033B1064B1B681BB1DB6B00EE103A7047A2
:105550009FED030A704700BF98C802249CC802242C
:10556000CDCC4C3D054B1B782BB1054B1B6813B1C3
:1055700093F8400070472020704700BF98C802246D
:105580009CC80224C0B12DE9F04F4FF0000A8046BC
:105590002DED0C8B87B080F800A0FFF789FA8146CB
:1055A00020B1FFF787FAB0F5A06F07D0002007B051
:1055B000BDEC0C8BBDE8F08F00207047FFF7E0FDDD
:1055C0000028F3D0FFF7EAFD0028EFD0C36C08EE07
:1055D000903AF5EEC08AF1EE10FAE7DD066DFFF7BE
:1055E00073FFB0EE409AFFF795FFF0EE409AFFF799
:1055F000A5FFF0EE40AA09F1FF399FEDDEAA57465C
:10560000DFEDDDBADFF874B31FFA8AF34D460024EC
:105610000BEE103A15F9013FB7EE008A9B1B00EE26
:10562000103AB8EEC00A28EEC00A0DF0E3FB30EEE7
:10563000080AC8EE00DAB4EEED9AF1EE10FA00F3C3
:10564000CF8095F900319B1B00EE103AB8EEC00AEE
:1056500028EEC00A0DF0CEFB95F90032F0EE40CAFC
:105660009B1B07EE903AB8EEE70A28EEC00A0DF051
:10567000C1FB95F90033B0EE40DA9B1B07EE903A80
:10568000B8EEE70A28EEC00A0DF0B4FB30EE080AC7
:1056900095F9003488EE00CA9B1B07EE903AF8EEAD
:1056A000E77A28EEE70A0DF0A5FBF4EECC9AF1EECE
:1056B00010FA00F3958030EE080AC8EE007AF4EE96
:1056C000E7AAF1EE10FA00F38B807CEE88CA3DEE7B
:1056D00008DAF6EE005AC8EE2C6A88EE0D7A2CEE47
:1056E00025CA05EE904AB8EE4B6AF8EE655A76EE9A
:1056F000A56A66EE8A6A37EE067A36EECC6A27EE3F
:105700000A7AB5EEC06AF1EE10FA00F14F81B4EEFC
:10571000C86AF1EE10FA38FE068AB6EE006A67EE45
:10572000867A77EE675AF5EEC05AF1EE10FA00F17C
:105730004381B7EE006AF4EEC65AF1EE10FA76FE37
:10574000255A3CEE26CAB5EEC0CAF1EE10FA00F1B9
:105750003081F7EE006AB4EEE6CAF1EE10FA36FEDA
:105760008C6A77EE877AF5EEC07AF1EE10FA00F1E6
:105770001A81B7EE007AF4EEC77AF1EE10FA77FEEE
:10578000276A3B0640F1FE809BED007A01237B4AAD
:105790004FF0000CD2ED057A6146F4EEC77AF1EED7
:1057A00010FA04D5B0EE677A5FFA83FC194601332C
:1057B0001432D8B28742EDD8F4EEC7DAF1EE10FA1F
:1057C0000DDD01EB81010BEB8101C1ED00DA81ED13
:1057D000018AC1ED025A81ED036AC1ED046A802796
:1057E0000134A4B2102C7FF415AF0AF1010A09F1BB
:1057F0001009BAF1100F7FF407AF012F40F2F380C8
:10580000DFF8789107F1FF3B4FF0000ACE465FFAD0
:105810008BFB0EF1140401AD94ED007AD446A6463C
:1058200026460FCC0FC523682B6056ED057AA6F1EE
:1058300014053446B4EEE77A2E46F1EE10FA40F342
:10584000CF800CF1FF3C0FCDBCF1FF3F0FC42B68A4
:105850002360EAD1002404EB840401AD0AF1010ABB
:1058600009EB8404D3450FCD0FC42B682360D0D13E
:10587000FFF778FE202828BF2020C5B2FFF736FEAC
:1058800098F8004007EB87073C4EA54209EB870CD0
:105890006DD9002C00F0938096ED012A04EB840270
:1058A00096ED023AB6EE081AD6ED031A08EB82021C
:1058B000D6ED042A434631EEC25ADFED2F5A72EE7E
:1058C000C37ADFED2F4AA10085FE255AC7FEA57ACF
:1058D00025EE275A0DE0B4EEC06AC7EE276AF1EE56
:1058E00010FA3FDAF4EEC16AF1EE10FA3ADA9A42AF
:1058F00066D0D3ED027A143313ED026A13ED017A08
:10590000C2FE273AD3ED006A83FE064A77EE677A35
:1059100081FEC77A36EEC66AC2FEE66A37EE637A61
:1059200076EEC46AC7FEA57A86FE256A67EE867A99
:1059300087FE257AC6FEA56A27EE267A75EE276AC7
:10594000C5FE677AF4EEE47A76EEC76AF1EE10FAF5
:1059500076EEA46A87EE266ABDD8B4EEC06AF1EE90
:1059600010FAC4DB1436B44501D0A54294D8012006
:105970001DE600BF0000803D00000000A0C802241A
:105980005F70893007EB870301370BEB8303FFB2AE
:10599000C3ED00DA83ED018AC3ED025A83ED036A99
:1059A000C3ED046A1CE7F0EE6B6AEAE6B0EE6B8AC0
:1059B000B3E6B0EE6B6AD4E6F0EE6B5AC1E6214670
:1059C0000F190134B64608EB8707E4B2043788F8AC
:1059D0000040BEE80F000FC7DEF800303B60C1E7B3
:1059E0000CF1010437E7FFF7BDFD0446FFF77EFD2C
:1059F000002FBCD0202CDFF80C9028BF2024E5B26B
:105A00003EE700BFA0C80224F0B51C468DB04FF0A1
:105A100001130E4618490546019301AB174608F0DD
:105A2000BFFA18B301AB28462246144908F0B8FA69
:105A300068B1608B32467B8B10491C180E4808F009
:105A400057FBA4B2844214D101200DB0F0BD129BCB
:105A50000B4A282102A80DF07FFB02AB094A302136
:105A600009480DF079FB00200DB0F0BD129B074AEC
:105A7000EFE7129B064AECE7F8D20224D0D20224C8
:105A8000703F01086C3F010864010024643F010875
:105A9000783F01082DE9F04FADF5597DFFF770FB18
:105AA000002800F0A283FFF715FC431E0790DBB22D
:105AB0000B2B00F28E834FF00113DFF8BCA414AE61
:105AC00022AD0C9330AC0DF1F80E0DF5987C5AAF69
:105AD000BAE80F000FC6BAE80F000FC6BAE80F0009
