:10000000000002205DB7000035B5000045B50000D6
:10001000A5B50000B5B50000C5B5000000000000A2
:10002000000000000000000000000000D5B5000046
:10003000E5B500000000000081B40000C9B6000072
:10004000F5B50000F5B50000F5B50000F5B5000008
:10005000F5B50000F5B50000F5B50000F5B50000F8
:10006000F5B50000F5B50000F5B50000F5B50000E8
:10007000F5B50000F5B50000F5B50000F5B50000D8
:10008000F5B50000F5B50000F5B50000F5B50000C8
:10009000F5B50000F5B50000F5B50000F5B50000B8
:1000A000F5B50000F5B50000F5B50000F5B50000A8
:1000B000F5B50000F5B50000F5B50000F5B5000098
:1000C000F5B50000F5B50000F5B50000F5B5000088
:1000D000F5B50000F5B50000F5B50000F5B5000078
:1000E000F5B50000F5B50000F5B50000F5B5000068
:1000F000F5B50000F5B50000F5B50000F5B5000058
:1001000080B500AF0AF0F4FD00BF80BD80B584B0BB
:1001100000AF78600AF0FCFEF86007F10B030121E4
:1001200018460AF0BBFDF8680AF0D8FEFB7A1846BC
:100130001037BD4680BD80B586B000AF78607B6863
:100140007B6100233B610AF0E3FE0346FB60012173
:1001500078690AF0A3FD012178690AF075FD7B69D1
:100160001B780D2B04D101210F480AF06DFD0EE024
:100170007B691B78032B03D14FF0FF333B6106E013
:100180007B6901337B613B6901333B61DFE77B695D
:1001900000221A70FB6818460AF0A0FE3B69184658
:1001A0001837BD4680BD00BF7A08010080B584B015
:1001B00000AF78607B68DBB2FB720AF0A9FE0346F1
:1001C000FB60FB7A0A2B03D1012109480AF03CFDB0
:1001D00007F10B03012118460AF036FDFB681846AB
:1001E0000AF07CFE002318461037BD4680BD00BFD4
:1001F0007B08010080B584B000AF78607B68FB604D
:100200000AF086FE0346BB6006E0FB685A1CFA60F3
:100210001B781846FFF7CAFFFB681B78002BF4D148
:10022000BB6818460AF05AFE002318461037BD4630
:1002300080BD00BF80B487B000AFF860B9601346DE
:10024000FB71FB799B10DBB203F01003FB75FB79AC
:1002500003F03F03FB7114E0FA79BB68B3FBF2F1E2
:1002600001FB02F29A1AFB7D1344FA68013AFA6024
:100270000E4AD25CFB681A70FB79BA68B2FBF3F3E2
:10028000BB60FB79BA689A42E6D2FA7DBB68134438
:10029000FA68013AFA60054AD25CFB681A70FB689A
:1002A00018461C37BD465DF8047B70478C0801007A
:1002B00080B590B000AFF860B9607A603B60002311
:1002C0003B63EFE297F82730252B07D03B6B002BE1
:1002D00040F0E8827B68013B3B63E3E23B6B002B31
:1002E00009D07A683B6BD31A591EFB68BA68386B21
:1002F000984700233B63002387F825307B685A1C0E
:100300007A601B7887F8273097F82730203B102B2E
:1003100048D801A252F823F079030000A503000099
:10032000A503000087030000A5030000A50300004B
:10033000A5030000A5030000A5030000A50300001D
:10034000A50300006B030000A50300005D0300008F
:10035000A5030000A50300009503000097F82530D1
:1003600043F0010387F825301BE097F8253043F070
:10037000020387F8253014E097F8253043F0040392
:1003800087F825300DE097F8253043F0080387F80B
:10039000253006E097F8253043F0100387F8253024
:1003A00000BFABE700BF97F827302A2B19D13B6875
:1003B0001A1D3A601B687B87B7F93A30002B09DABF
:1003C0007B8F5B429BB27B8797F8253043F001031C
:1003D00087F825307B685A1C7A601B7887F82730AD
:1003E0001EE000237B8713E07B8F1A4692001344A4
:1003F0005B009AB297F827309BB213449BB2303B14
:100400009BB27B877B685A1C7A601B7887F8273001
:1004100097F827302F2B03D997F82730392BE3D9BA
:100420004FF6FF733B8797F827302E2B40D17B6820
:100430005A1C7A601B7887F8273097F827302A2BC8
:1004400011D13B681A1D3A601B683B87B7F93830F9
:10045000002B01DA00233B877B685A1C7A601B78EB
:1004600087F827301EE000233B8713E03B8F1A46B6
:10047000920013445B009AB297F827309BB2134462
:100480009BB2303B9BB23B877B685A1C7A601B78DF
:1004900087F8273097F827302F2B03D997F8273084
:1004A000392BE3D997F8253023F0100387F825304E
:1004B000002387F8243097F82730682B03D097F86B
:1004C00027306C2B09D197F8273087F824307B68C8
:1004D0005A1C7A601B7887F827300A2387F8263061
:1004E0000023FB7407F114030E33BB6297F8273027
:1004F000782B00F34D81642B0BDA632B00F03581F0
:10050000632B00F34581002B00F03E81582B22D055
:100510003EE1643B012202FA03F39F4A1A40002A9B
:1005200014BF01220022D2B2002A14D103F40042E7
:10053000002A14BF01220022D2B2002A40F0F1802A
:1005400003F48053002B14BF01230023DBB2002BE4
:1005500040F0CF801CE197F824306C2B05D13B682C
:100560001A1D3A601B68FB6316E03B681A1D3A606F
:100570001B68FB6397F82430682B0DD197F8273060
:10058000692B03D097F82730642B02D1FB6B1BB289
:1005900001E0FB6B9BB2FB6397F82730583B202BA5
:1005A00000F2948001A252F823F000BF730600000D
:1005B000CD060000CD060000CD060000CD060000EF
:1005C000CD060000CD060000CD060000CD060000DF
:1005D000CD060000CD060000CD060000310600006B
:1005E000CD060000CD060000CD060000CD060000BF
:1005F00031060000CD060000CD060000CD0600004B
:10060000CD060000CD06000087060000CD060000E4
:10061000CD060000CD060000CD060000CD0600008E
:10062000CD060000CD060000CD0600007D060000CE
:10063000FB6B002B05DAFB6B5B42FB632D23FB742A
:1006400010E097F8253003F00203002B02D02B2393
:10065000FB7407E097F8253003F00403002B32D039
:100660002023FB74B7F93A309BB2013B9BB27B87E6
:100670002CE097F82630403387F8263097F826305C
:10068000083387F8263097F82630023B87F8263063
:1006900097F8253003F00803002B16D0FB6B002BD6
:1006A00013D07A8F97F82630082B01D1012300E070
:1006B0000223D31A9BB27B8797F8263063F07F031F
:1006C00087F8263001E000BF00E000BFFB6B002B85
:1006D00003D1B7F93830002B08D097F826301A46E6
:1006E000F96BB86AFFF7A6FD034600E0BB6AFB6240
:1006F00055E03B681A1D3A601B68FB63FB6B002BDF
:1007000006D0902387F826307B8F023B9BB27B87F5
:1007100097F826301A46F96BB86AFFF78BFDF86236
:100720003DE03B681A1D3A601B68FB62FB6ABB62D6
:10073000B7F93830002B0BDA02E0BB6A0133BB6239
:10074000BB6A1B78002BF8D128E0BB6A0133BB627F
:100750003B8F013B9BB23B87B7F93830002B1DDB49
:10076000BB6A1B78002BF0D118E0BB6AFB623B68C8
:100770001A1D3A601A68FB6A013BFB62D2B2FB6A3F
:100780001A7000233B870AE07B68013B7B6089E0AD
:100790007B68013B3B6385E02108120000BFBA6A19
:1007A000FB6AD31AFB863A8FFB8ED31A9BB23B8728
:1007B000B7F93830002B04DDFA8E3B8F13449BB21F
:1007C000FB867A8FFB8ED31A9BB27B8797F82530F6
:1007D00003F01103002B0DD104E0FB68BA6801217E
:1007E0003D4898477B8F013B9BB27B87B7F93A30F6
:1007F000002BF2DAFB7C002B05D007F11300FB681D
:10080000BA680121984797F92630002B17DAFB6860
:10081000BA6801213148984797F8263003F0100351
:10082000002B0CD097F8263003F04003002B01D0AA
:100830002B4800E02B48FB68BA68012198473B8FA2
:10084000FB86B7F93630002B0FDC97F8253003F024
:100850001103102B09D17B8FFB8600237B8704E0DB
:10086000FB68BA6801211D489847FB8E013B9BB28B
:10087000FB86B7F93630002BF2DABA6AFB6AD11A76
:10088000FB68BA68F86A984704E0FB68BA68012117
:10089000114898477B8F013B9BB27B87B7F93A3071
:1008A000002BF2DA7B685A1C7A601B7887F82730B5
:1008B00097F82730002B7FF405AD3B6B002B07D05A
:1008C0007A683B6BD31A591EFB68BA68386B984735
:1008D00000BF4037BD4680BD7C0801008008010094
:1008E000840801008808010080B584B000AFF8607A
:1008F000B9607A607B68B3F900309AB2BB689BB28A
:1009000013449BB21AB27B681A8006E0FB685A1C3B
:10091000FA601B781846FFF749FCBB68013BBB60D7
:10092000BB68002BF2DA00BF00BF1037BD4680BDA8
:100930000FB480B582B000AF00237B8007F11403B1
:100940007B60B91C7B683A690548FFF7B1FCB7F9D1
:10095000023018460837BD46BDE8804004B07047F5
:10096000E908000080B485B000AFF860B9607A6033
:100970007B68B3F900309AB2BB689BB213449BB258
:100980001AB27B681A8009E0FA68531CFB607B6826
:100990005B68581C7968486012781A70BB68013B24
:1009A000BB60BB68002BEFDA00BF00BF1437BD4649
:1009B0005DF8047B70470EB480B587B000AF7860F7
:1009C00000233B827B687B6107F12803FB6007F112
:1009D0001001FB687A6A0948FFF76AFCB7F9103022
:1009E0001A467B68134400221A70B7F91030184673
:1009F0001C37BD46BDE8804003B070476509000064
:100A000080B584B000AF78600AF082FAF8607B6845
:100A10001B685A1C7B681A607B681B68BB60F8689F
:100A20000AF05CFABB6818461037BD4680BD80B539
:100A300084B000AF78600AF06BFAF8607B681B68DE
:100A4000591E7A681160BB60F8680AF047FABB6803
:100A500018461037BD4680BD80B582B000AF7860C3
:100A60007868FFF7CDFF0346002B07DD7B685B68E6
:100A70004FF0FF320121184606F02BF800BF08376F
:100A8000BD4680BD80B582B000AF78607868FFF762
:100A9000CEFF0346002B05DD7B685B68012118460D
:100AA00005F040FF00BF0837BD4680BD80B58AB065
:100AB00000AF786039600123FB6000233B610123B4
:100AC0007B6107F108037B62164B3B620023FB61ED
:100AD0000AE03A6A531C3B627B6A591C79621278BD
:100AE0001A70FB690133FB61FB69032BF1DD07F130
:100AF0000803184605F04CFEB861BB69002B01DA0B
:100B0000BB690AE07B68BA695A607B684FF0FF32C4
:100B10001A607B683A689A60002318462837BD46F9
:100B200080BD00BFAC08010080B582B000AF786026
:100B30007B685B68002B04DD7B685B68184605F00A
:100B4000A1FE7B6800225A6000BF0837BD4680BD09
:100B500080B584B000AF78600AF0DAF9F8607B689D
:100B60001B685A1C7B681A60F8680AF0B7F900BF66
:100B70001037BD4680BD80B584B000AF78600AF004
:100B8000C7F9F8607B681B685A1E7B681A60F868B2
:100B90000AF0A4F900BF1037BD4680BD80B586B00D
:100BA00000AF7860396001223B6802FA03F37B6191
:100BB0000AF0AEF938617B681B687A691340FB6004
:100BC0007B681A687B691A437B681A6038690AF087
:100BD00085F9FB6818461837BD4680BD80B584B0DE
:100BE00000AF786039600AF093F9F8607B681A68A2
:100BF00001213B6801FA03F3DB431A407B681A606A
:100C0000F8680AF06BF900BF1037BD4680BD80B5AB
:100C10008AB002AFF860B9607A600122BB6802FA5C
:100C200003F3BB61FB6804331846FFF791FFFB68D1
:100C3000B9681846FFF7B2FF0346002B02D1002324
:100C4000FB6110E0FB68986807F114027B68009371
:100C500013462122B96902F08FF9F861FB69002B74
:100C600000DBE4E700BFFB6804331846FFF783FFAF
:100C7000FB6918462037BD4680BD80B582B000AF05
:100C8000786039604FF0FF3239687868FFF7BFFF4E
:100C9000034618460837BD4680BD80B584B000AF16
:100CA0007860396001223B6802FA03F3FB607B68DD
:100CB00039681846FFF792FF7B685B68002B07D006
:100CC0007B689B68F968184602F06AF8034600E002
:100CD0000023BB60BB6818461037BD4680BD80B599
:100CE0008AB000AF7860396009233B6100237B61E3
:100CF00007F10C037B62174B3B620023FB610AE0A8
:100D00003A6A531C3B627B6A591C796212781A70EA
:100D1000FB690133FB61FB69032BF1DD07F10C0378
:100D2000184601F08DFFB8617B68BA699A60BB69AB
:100D3000002B01DABB6909E07B6800225A607B68FE
:100D400000221A607B683A68DA6000231846283768
:100D5000BD4680BDB408010080B584B000AF7860A6
:100D60007B689B68002B02DC6FF010030EE07B6851
:100D70009B68184601F0C4FFF860FB68002B01DA9D
:100D8000FB6803E07B6800229A6000231846103756
:100D9000BD4680BD80B582B000AF7860786803F052
:100DA00079F8034618460837BD4680BD80B582B045
:100DB00000AF786039603968786803F0C1F803469D
:100DC00018460837BD4680BD80B582B000AF786058
:100DD00039603968786803F0D0F803461846083758
:100DE000BD4680BD80B582B000AF7860786803F002
:100DF000F8F800BF0837BD4680BDF0B484B000AF3E
:100E0000F860B9607A60FC68BB68DDB27B68072B6C
:100E100012DC03E023465C1C2A461A707B685A1ECB
:100E20007A60002BF6DCFB682EE07B68013B7B6080
:100E300023465C1C2A461A70234603F00303002B4A
:100E4000F3D126462A4613461B021A442B461B049E
:100E50001A432B461B0642EA030405E033461E1DD7
:100E60001C607B68043B7B607B68032BF6DC3446AC
:100E700006E023465C1C2A461A707B68013B7B60B7
:100E80007B68002BF5D1FB6818461037BD46F0BCD7
:100E90007047B0B485B000AFF860B9607A60FC68A4
:100EA000BD6805E02A46551C23465C1C12781A7062
:100EB0007B685A1E7A60002BF4DCFB6818461437F6
:100EC000BD46B0BC704790B482B000AF78607C681B
:100ED00000E001342378002BFBD17B68E31A18462D
:100EE0000837BD4690BC704790B482B000AF7860C0
:100EF00039607C6823465C1C3A6812781A703B683B
:100F00005A1C3A601B78002BF4D17B6818460837CE
:100F1000BD4690BC704790B484B000AFF860B96033
:100F20007A60FC687B685A1E7A60002B01DCFB68E3
:100F300015E023465C1CBA6812781A70BB685A1C0C
:100F4000BA601B78002BEDD103E023465C1C002225
:100F50001A707B685A1E7A60002BF6DCFB68184614
:100F60001037BD4690BC704790B482B000AF786037
:100F700039600DE07B685A1C7A601B7819463B6823
:100F80005A1C3A601B78CC1A002C01D0234609E089
:100F90007B681B78002BEDD17B681B781A463B6879
:100FA0001B78D31A18460837BD4690BC704790B4DA
:100FB00082B000AF786039607C6800E0013423784B
:100FC000002BFBD106E03B685A1C3A602246541CB9
:100FD0001B7813703B681B78002BF4D1002323701F
:100FE0007B6818460837BD4690BC704780B483B014
:100FF00000AF78607B687A681A607B687A685A60AC
:1010000000BF0C37BD465DF8047B704780B483B0E9
:1010100000AF78607B681B687A689A420CBF012336
:101020000023DBB218460C37BD465DF8047B7047E1
:1010300080B483B000AF786039603B685A687B68E1
:101040005A607B683A681A603B685B687A681A6025
:101050003B687A685A6000BF0C37BD465DF8047B78
:10106000704780B483B000AF78607B681B687A6893
:101070009A4209D07B685B687A6812681A607B685C
:101080001B687A6852685A6000BF0C37BD465DF82D
:10109000047B704780B485B000AF78607B681B68C4
:1010A0007A689A4201D100230BE07B681B68FB60E1
:1010B000FB681A687B681A60FB681B687A685A606C
:1010C000FB6818461437BD465DF8047B704780B452
:1010D00083B000AF78607B681B127B607B68002B5D
:1010E00002DD7B68082B02DD6FF0110300E00023B6
:1010F00018460C37BD465DF8047B704780B584B058
:1011000000AF7860114B1B68FB6015E0FB68BB60AB
:10111000BB681A7A7B681B789A420AD1BB6808338D
:1011200079681846FFF720FF0346002B01D1BB6802
:1011300007E0FB681B68FB60FB68044A9342E5D14B
:10114000002318461037BD4680BD00BF9404002020
:1011500080B584B000AF78600F48FFF79BFFF86060
:10116000FB68002B01D1002311E0FB680833092242
:1011700079681846FFF7CFFEFB6840331846FFF743
:1011800035FFFB6805491846FFF752FFFB68184614
:101190001037BD4680BD00BF9C0400209404002091
:1011A00080B582B000AF78607B681846FFF759FFC2
:1011B0007B6805491846FFF73BFF7B6800221A72DF
:1011C00000BF0837BD4680BD9C040020B0B588B084
:1011D00000AFF860B9607A6001214F48FFF74DFD1C
:1011E000F868FFF770FEB861BB69002B02D0BB69DD
:1011F000082B03DD6FF010037B6184E0BB68002BDC
:1012000027D0BB68DB68002B03DBBB68DB68FF2BE8
:1012100003DD6FF010037B6175E0BB68DB68002BBA
:1012200002DDBB690133BB61BB68DB680A2B02DDF1
:10123000BB690133BB61BB68DB68642B02DDBB6942
:101240000133BB61BB69082B03DD6FF010037B61C9
:1012500059E000213048FFF710FDF868FFF74EFF16
:10126000F861FB69002B11D1BB68002B03D16FF033
:1012700029037B6143E0F868FFF76AFFF861FB69C7
:10128000002B03D16FF021037B6138E0BB68002B9A
:1012900014D0FB69BA6803F1140415460FCD0FC4CE
:1012A0000FCD0FC495E8070084E807007B68002B8A
:1012B00013D07B68194A12681A600EE0FB6940334C
:1012C0001846FFF7A3FE0346002B03D16FF040033F
:1012D0007B6114E0F869FFF763FF00210E48FFF718
:1012E000DCFC01210C48FFF7D8FCFB690C4A9B1A77
:1012F000DB100C4A02FB03F301331B0208E0002160
:101300000548FFF7CAFC01210348FFF7C6FC7B69CB
:1013100018462037BD46B0BD4002002050020020D4
:1013200054020020398EE33880B582B000AF786077
:1013300000210848FFF7A1FC7B68074A12681A6081
:1013400000210448FFF7A9FC002318460837BD46D2
:1013500080BD00BF400200205002002080B485B054
:1013600000AF786039600DE0FB7A2F2B02D9FB7A51
:10137000392B0ED97B685A1C7A60FA7A1A703B684E
:1013800001333B603B681B78FB72FB7A002BEBD18F
:1013900000E000BF7B6800221A700023FB60FB7A2C
:1013A000002B16D00CE0FA6813469B0013445B0038
:1013B0001A46FB7A303B1344FB603B6801333B60C9
:1013C0003B681B78FB72FB7A002BECD1FB68013386
:1013D000FB60FB6818461437BD465DF8047B704718
:1013E00080B588B000AFF860B9607A60B968F86815
:1013F000FFF77AFD7B68002B34DD07F110030B3318
:10140000FB61FB6900221A7002E0FB680133FB609C
:10141000FB681B78002BF8D17B68013B7B607A6806
:10142000124B83FB02139910D317C91A0B469B006A
:101430000B445B00D11ACBB2FA69013AFA6130333E
:10144000DAB2FB691A707B68084A82FB03129210B9
:10145000DB17D31A7B607B68002BE0D1F969F86851
:10146000FFF7A5FD00BF2037BD4680BD67666666F5
:1014700080B584B000AF786039607868FFF727FEE8
:10148000F860FB68002B37DB00211E48FFF7F5FBF7
:101490007B681B121A461346DB001344DB00483BF3
:1014A000194A1344BB60BB681B7A002B05D07B68CC
:1014B000DAB2BB681B6A9A4208DD6FF02903FB6051
:1014C00000BF00210F48FFF7E8FB16E0BB680833B8
:1014D0007A68D2B219463868FFF782FF00210948BE
:1014E000FFF7DBFBBB68084A9B1ADB10074A02FBCD
:1014F00003F301331B0201E000BFFB6818461037FD
:10150000BD4680BD4002002054020020398EE338E1
:1015100080B588B000AF7860396007F1080379685A
:101520001846FFF71BFFF86100212048FFF7A5FBD5
:1015300007F108031846FFF7E1FDB861BB69002B0E
:1015400004D0BB691B6AFA699A4209DD6FF029036E
:101550007B6100BF00211548FFF79FFB7B6920E0FE
:101560003B68002B0ED0BB69DA693B681A60BB6927
:101570005A6A3B685A60BB691A6A3B689A603B6862
:10158000FA69DA6000210948FFF787FBBB69084A5E
:101590009B1ADB10074A02FB03F301331A02FB69B3
:1015A000134418462037BD4680BD00BF40020020CE
:1015B00054020020398EE33880B586B000AF7860E1
:1015C000396000211F48FFF758FB07F108031A464E
:1015D0000021786800F02CFA78617B69002B27DB0A
:1015E000BB685B693B61BB689B69FB603B68002B28
:1015F0000ED03B69DA693B681A603B695A6A3B68FE
:101600005A603B691A6A3B689A603B68FA68DA601C
:1016100000210C48FFF741FB3B690B4A9B1ADB108A
:101620000A4A02FB03F301331A02FB68134405E084
:1016300000BF00210348FFF730FB7B6918461837CD
:10164000BD4680BD4002002054020020398EE338A0
:1016500080B58AB000AFF860B9607A60BB68002BD3
:1016600002DB7B68002B03DA6FF01003FB6149E0BB
:1016700000212748FFF701FBBA687B681344BB6170
:1016800000233B62234B1B687B6227E03A6ABB68FE
:101690009A421DDB3A6ABB699A4219DA7B6A7B611E
:1016A0007B69DA69FB681A607B695A6AFB685A6071
:1016B0007B691A6AFB689A60FB6803F10C007B691E
:1016C000083308221946FFF726FCFB681433FB6039
:1016D0003B6A01333B627B6A1B687B627B6A0D4A13
:1016E0009342D3D100210A48FFF7D7FABA683B6A80
:1016F0009A4203DB6FF02903FB6103E03A6ABB689F
:10170000D31A00E0FB6918462837BD4680BD00BFEC
:10171000400200209404002080B588B000AFF8603B
:10172000B9607A60F868FFF7D2FCF861FB69002BBA
:1017300056DBBB68002B03DA6FF01003FB6150E04F
:1017400000212A48FFF799FAFB681B121A46134634
:10175000DB001344DB00483B254A1344BB61BB69F3
:101760001B7A002B05D0FB68DAB2BB691B6A9A4270
:1017700008DD6FF02903FB6100BF00211B48FFF764
:101780008CFA2EE0BB69DB6B7B61BB695B693B61FB
:1017900000211648FFF781FA09F0BAFB154B1B68C8
:1017A000B3F9222092B2013292B212B25A840020CE
:1017B00009F094FB7B693A697968B8689847F861E1
:1017C00009F0A6FB0B4B1B68B3F9222092B2013A39
:1017D00092B212B25A84002009F080FBFB6901E04A
:1017E00000BFFB6918462037BD4680BD400200207F
:1017F000540200201015002080B582B000AF0823ED
:101800003B600F48FFF7F2FB0E48FFF7EFFB0E4B74
:101810007B600AE07B680B491846FFF709FC7B6890
:1018200000221A727B6848337B603B685A1E3A601C
:10183000002BEFDC002318460837BD4680BD00BFF3
:10184000940400209C0400205402002080B483B043
:1018500000AF00237B60054A7B6813607B681846F5
:101860000C37BD465DF8047B704700BF5002002076
:1018700080B582B000AF16491648FFF730FA78609D
:101880007B68002B15DBFFF7B7FF78607B68002BC8
:1018900011DB01F0D1F878607B68002B0DDBFFF7DE
:1018A000D5FF78607B68002B09DB01F071F800231D
:1018B00009E000BF04E000BF02E000BF00E000BF9D
:1018C00000F016F87B6818460837BD4680BD00BF9B
:1018D000BC0801004002002080B483B000AF0023A8
:1018E0007B607B6818460C37BD465DF8047B70470B
:1018F00080B582B000AF01F061F8FFF7EDFF7860CE
:1019000001F0E4F878600448FFF726FA7B6818468F
:101910000837BD4680BD00BF4002002080B483B0C0
:1019200000AF78607B687A681A607B687A685A6072
:1019300000BF0C37BD465DF8047B704780B483B0B0
:1019400000AF78607B681B687A689A420CBF0123FD
:101950000023DBB218460C37BD465DF8047B7047A8
:1019600080B483B000AF786039603B685A687B68A8
:101970005A607B683A681A603B685B687A681A60EC
:101980003B687A685A6000BF0C37BD465DF8047B3F
:10199000704780B483B000AF78607B681B687A685A
:1019A0009A4209D07B685B687A6812681A607B6823
:1019B0001B687A6852685A6000BF0C37BD465DF8F4
:1019C000047B704780B485B000AF78607B681B688B
:1019D0007A689A4201D100230BE07B681B68FB60A8
:1019E000FB681A687B681A60FB681B687A685A6033
:1019F000FB6818461437BD465DF8047B704780B518
:101A000000AF00210848FFF738F9084B1B68002B8E
:101A100002D10648FFF782FF00210348FFF73DF996
:101A2000024B184680BD00BF40020020F40B00208E
:101A300080B487B000AFF860B9607A60FB68002BB3
:101A400002DDFB68102B02DD6FF011031EE0FB6866
:101A500003F18063013B9B010F4A13447B617B6967
:101A60001B69002B02D16FF011030FE0BB68002B44
:101A700008D07B69DA69BB681340002B02D16FF094
:101A80001A0303E07B687A691A60002318461C3742
:101A9000BD465DF8047B7047A404002080B582B089
:101AA00000AF786039607B681846FFF772FF7B688B
:101AB00008331846FFF76DFF3B68002B04D07B68A6
:101AC00005491846FFF74CFF7B6800221A6100BFEA
:101AD0000837BD4680BD00BFA408002080B582B095
:101AE00000AF78607B681846FFF753FF7B680549B5
:101AF0001846FFF735FF7B6800229A6000BF083761
:101B0000BD4680BDEC0B002080B485B000AF78608E
:101B100039607B681B6CFB6009E0FB689B693A6875
:101B20009A4201D1012308E0FB681B68FB607B68D7
:101B30004033FA689A42F0D1002318461437BD4664
:101B40005DF8047B704780B586B000AFF860B9607F
:101B50007A603B601A48FFF735FF78617B69002B9C
:101B600001D1002328E07A69FB684033194610460A
:101B7000FFF7F6FE7B6908333A6811461846FFF70F
:101B8000EFFE7B69FA685A617B69BA689A617B6982
:101B90007A68DA617B6920331846FFF7BFFE7B69FC
:101BA00000221A857B6900221A637B6900225A632E
:101BB0007B6900221A617B6918461837BD4680BDD3
:101BC000A408002080B48BB000AFF860B9607A60E0
:101BD0007B6803F00303002B02D16FF0100372E067
:101BE00000237B617B69BB61BB69FB61FB693B6275
:101BF000FB681B6C7B6234E07B6A3B61BB68002B3B
:101C000008D03B699B69002B04D03B699B69BA688B
:101C10009A4223D13B69DB6903F00103002B02D018
:101C20003B6A01333B623B69DB6903F00203002B33
:101C300002D0FB690133FB613B69DB6903F4A063FC
:101C4000002B02D0BB690133BB613B69DB6903F444
:101C50004073002B02D07B6901337B617B6A1B6878
:101C60007B62FB6840337A6A9A42C5D17B6803F491
:101C7000A063002B05D03B6A002B02DD6FF0400310
:101C800021E07B6803F44073002B05D0FB69002B37
:101C900002DD6FF0400316E07B6803F00103002BC8
:101CA00005D0BB69002B02DD6FF040030BE07B68C1
:101CB00003F00203002B05D07B69002B02DD6FF0DF
:101CC000400300E0002318462C37BD465DF8047B36
:101CD000704780B58EB000AF7860396007F10C03B3
:101CE00079681846FFF73AFBF862FFF788FEB8629A
:101CF000BB6A002B03D16FF018033B63ABE00021FC
:101D00005748FEF7BAFF07F10C031846FFF7F6F93C
:101D100078627B6A002B04D07B6A1B6AFA6A9A425B
:101D200003DD6FF029033B6391E03A68F96A786A52
:101D3000FFF748FF38633B6B002BC0F287807B6A5C
:101D40009B6A7B637B6A5B693B62F96A786AFFF72F
:101D5000DBFE0346002B07D07B6A9B6903F001037F
:101D6000002B01D100237B63BB6A3A68F96A786A69
:101D7000FFF7E9FEF861FB69002B03D16FF0210347
:101D80003B6364E0374804F003FDB861BB69002B96
:101D900003DA6FF004033B6353E0FB69BA69DA636B
:101DA00000212F48FEF779FF7B6B002B2ED009F026
:101DB000AFF82D4B1B68B3F9222092B2013292B2D8
:101DC00012B25A84002009F089F87B6A274A9B1ACC
:101DD000DB10274A02FB03F301331A02FB6AD01817
:101DE0007B6B3A6A39689847386309F091F81E4B63
:101DF0001B68B3F9222092B2013A92B212B25A840D
:101E0000002009F06BF83B6B002B10DB002114481D
:101E1000FEF733FFFB6901221A6100211048FEF72B
:101E20003CFFFB69134A9B1A9B11013314E000BF6E
:101E300000210B48FEF721FFFB69DB6B184604F01D
:101E400021FD0121F869FFF729FE00E000BF002114
:101E50000348FEF722FF3B6B18463837BD4680BD6E
:101E600040020020C4080100101500205402002088
:101E7000398EE338A404002090B589B000AF7860B3
:101E800000217648FEF7F9FE7B685B69BB61BB69A0
:101E90009B6B7B61BB695B6B3B61BB695B69FB6097
:101EA00005F04CFE02467B685A637B6800229A6309
:101EB0007B681B6B002B2EDD7B68DB6A103BBB60F5
:101EC00009F026F8664B1B68B3F9222092B2013262
:101ED00092B212B25A84002009F000F8BB68D868A8
:101EE0007B68D96A7B681A6B7C69FB68A04709F03C
:101EF0000FF85B4B1B68B3F9222092B2013A92B201
:101F000012B25A84002008F0E9FF7B689B6B5A1CD0
:101F10007B689A6342E07B681B6AFB6139E0FB697E
:101F2000BB60BB68DB68002B2FD0BA68137F43F01F
:101F30001003137708F0ECFF494B1B68B3F922201C
:101F400092B2013292B212B25A84002008F0C6FF57
:101F5000BB68D868BB6803F110017C69FB6801228B
:101F6000A04708F0D5FF3E4B1B68B3F9222092B280
:101F7000013A92B212B25A84002008F0AFFF7B6897
:101F80009B6B5A1C7B689A6300E000BFFB691B686F
:101F9000FB617B682033FA699A42C0D100212F4847
:101FA000FEF77BFE7B689B6B002B07DD7B68DB6BA2
:101FB0004FF0FF320121184604F08BFD7B680022B0
:101FC0005A6300212548FEF758FE37E07B681B6AFC
:101FD000BB60BA68137F43F01003137700211F48DA
:101FE000FEF75BFE08F094FF1D4B1B68B3F922203F
:101FF00092B2013292B212B25A84002008F06EFFFF
:10200000BB6803F110003C69FB684FF0FF3201210F
:10201000A04708F07DFF124B1B68B3F9222092B253
:10202000013A92B212B25A84002008F057FF002100
:102030000A48FEF722FEB868FFF750FD7B682033A0
:102040001846FFF77BFC0346002BBFD00021034856
:10205000FEF723FE00BF2437BD4690BD400200209E
:102060001015002080B588B000AF7860396000237B
:10207000BB617868FFF700FF00213948FEF7FDFDDE
:102080007B685B697B617B689B693B617B69DB6A21
:10209000FB617B695B69FB607B69324A9B1ADB10E1
:1020A000314A02FB03F301331B023A691344BB605C
:1020B0007B68DB6B184604F0E5FB00217868FFF7CE
:1020C000EDFC39697869FFF71FFD0346002B0BD043
:1020D0003B6823F001033B607B699B6903F00103CC
:1020E000002B01D10023FB6100211D48FEF7D5FD27
:1020F000FB69002B21D008F00BFF1C4B1B68B3F9C8
:10210000222092B2013292B212B25A84002008F018
:10211000E5FEFB69FA683968B8689847B86108F065
:10212000F7FE124B1B68B3F9222092B2013A92B229
:1021300012B25A84002008F0D1FE00210848FEF7B0
:102140009CFD7B680A491846FFF70AFC00210448F9
:10215000FEF7A3FDBB6918462037BD4680BD00BF12
:102160004002002054020020398EE3381015002070
:10217000A408002080B584B000AF786039600021E9
:102180001248FEF77AFD07F108031A460021786825
:10219000FFF74EFCF860FB68002B04DA00210B48C7
:1021A000FEF77BFD0CE0BB6800221A6100210748A6
:1021B000FEF773FDBB6839681846FFF753FFF860F8
:1021C000FB6818461037BD4680BD00BF40020020A6
:1021D00080B584B000AF78600B48FFF7F3FBF86080
:1021E000FB68002B01D100230AE0FA687B682033EA
:1021F00019461046FFF7B4FBFB687A689A60FB68E3
:1022000018461037BD4680BDEC0B002080B58CB061
:1022100000AFF860B9607A603B6000216548FEF766
:102220002CFDBB6813F5803F06DCBB68B3F1004FA3
:1022300002D00023FB6206E0FB6B012B01D10123DE
:1022400000E00223FB6207F114031A46F96AF868FA
:10225000FFF7EEFBB862BB6A002BC0F2A1807B697E
:102260005B697B627B6A1B6B3B627B6A5B69FB61C0
:102270007B691846FFF7ACFFB861BB69002B03D13F
:102280006FF02103BB628CE0BB6900221A61BB695D
:1022900000225A617B6A484A9B1ADB10474A02FBBC
:1022A00003F301331A027B699B691A44BB699A6183
:1022B000FB6B1B015BB21B1159B2BA69137F61F34F
:1022C00003031377BA69137F23F010031377BB69F5
:1022D000BA681A62BB693A685A62BB697A689A62DC
:1022E000BB690022DA62BB6900221A6305F026FC92
:1022F0000246BB69DA6000212E48FEF7CEFC08F0EA
:1023000007FE2F4B1B68B3F9222092B2013292B222
:1023100012B25A84002008F0E1FDBB6903F11000FD
:102320003B6AFA69B96B9847B86208F0F1FD244B33
:102330001B68B3F9222092B2013A92B212B25A84C7
:10234000002008F0CBFD00211A48FEF796FCBB697F
:102350000022DA607B695B6B002B0CDD7B699A6B7A
:10236000013A9A639B6B002B05D17B69DB6B0121E2
:10237000184604F0D7FABB6A002B0CDB00210D488D
:10238000FEF78BFCBB690F4A9B1A9B100E4A02FB9F
:1023900003F301330AE000BFB869FFF79FFB00E0D9
:1023A00000BF00210348FEF778FCBB6A18463037AF
:1023B000BD4680BD4002002054020020398EE33823
:1023C00010150020AC080020C54EECC480B588B0C4
:1023D00002AFF860B9607A603B60012301933B6A09
:1023E00000933B687A68B968F868FFF70FFF786177
:1023F0007B6918461837BD4680BD80B588B002AFEE
:10240000F860B9607A603B604FF0FF3300933B683F
:102410007A68B968F868FFF7D9FF78617B69002BA3
:102420000FDB07F110034FF0FF3200923A6A79692F
:10243000F86800F077F878617B69002B03DB3B6973
:1024400003E000BF00E000BF7B6918461837BD46B7
:1024500080BD80B588B002AFF860B9607A603B603B
:10246000022301933B6A00933B687A68B968F86875
:10247000FFF7CCFE78617B6918461837BD4680BDF2
:1024800080B588B002AFF860B9607A603B604FF009
:10249000FF3300933B687A68B968F868FFF7D9FFA3
:1024A00078617B69002B0FDB07F110034FF0FF32DF
:1024B00000923A6A7969F86800F034F878617B69CB
:1024C000002B03DB3B6903E000BF00E000BF7B693A
:1024D00018461837BD4680BD80B485B000AF78601F
:1024E00039607B68002B02DD7B68102B01DD002347
:1024F0000FE07B68342202FB03F3343B084A1344A9
:10250000FB60FB689B683A689A4201D0002300E0B8
:10251000FB6818461437BD465DF8047B704700BF62
:10252000AC08002090B58FB000AFF860B9607A6059
:102530003B6005F003FB386200218E48FEF79DFBEF
:1025400007F110031A460021F868FFF771FA786264
:102550007B6A002BC0F202813B695B69FB61FB690E
:102560005B6BBB61FB695B697B61BB68002B42D124
:102570003B691B6B002B03DC3B691B8D002B03D0DD
:102580006FF028037B62ECE03B6920331846FFF7CD
:10259000D5F90346002B03D06FF029037B62E0E0FE
:1025A0003B691B6A7B630123BB627B6B3A6ADA601F
:1025B0007B6B10333B637B6B1B687B633B69203316
:1025C0007A6B9A4208D07B6B03F110023B6B1A6066
:1025D000BB6A0133BB62E8E700BF3B6B00221A60B5
:1025E0003B691B6A10333B633B693A6BDA623B69B8
:1025F000BA6A1A6328E03B691946B868FFF76CFFAE
:1026000078637B6B002B03D16FF011037B62A8E032
:102610003B691B6B002B03DC7B6BDB68002B03DD52
:102620006FF028037B629CE07B6B3A6ADA607B6B1D
:1026300010333B633B6B00221A600123BB623B6992
:102640001A8D013292B21A8500214A48FEF725FB05
:1026500008F05EFC484B1B68B3F9222092B20132AD
:1026600092B212B25A84002008F038FCBC697B692F
:10267000BA6CB96A386BA047F86208F049FC3E4B67
:102680001B68B3F9222092B2013A92B212B25A8474
:10269000002008F023FCFB6A002B01DAFB6A7B6256
:1026A000FA6ABB6A9A4202DB6FF004037B62002184
:1026B0003048FEF7E2FABB68002B03D13B690022E9
:1026C0001A6304E03B691A8D013A92B21A853B699C
:1026D0005B6B002B2CDD3B699A6B013A9A639B6B19
:1026E000002B25D13B69DB6B0121184604F01AF958
:1026F0001EE03B6B103B7B63FB6A5A1EFA62002BA9
:1027000010D17B6B1D4A9B1A9B101D4A02FB03F3E1
:102710000133BB603B6BDA697B681A603B6B1A6AFA
:102720003B681A607B6B0022DA603B6B1B683B6383
:102730003B6B002BDDD17B6A002B11DBBB683422A5
:1027400002FB03F3343B0D4A13441846FFF7C6F966
:1027500000210848FEF7A1FABB6807E000BF00E0CF
:1027600000BF00210348FEF798FA7B6A18463C3701
:10277000BD4690BD4002002010150020AC0800208E
:10278000C54EECC480B588B000AF786039600023D6
:10279000BB61244B1B68FB613AE0FB697B617B6991
:1027A000DB6903F0F003102B0CBF01230023DBB225
:1027B0003B613A683B699A4226D17B69DB6BFB60DF
:1027C00008F0A6FB184B1B68B3F9222092B2013225
:1027D00092B212B25A84002008F080FB7B695A69D9
:1027E000FB68002178689847B86108F091FB0E4BB0
:1027F0001B68B3F9222092B2013A92B212B25A8403
:10280000002008F06BFB00E000BFFB691B68FB6168
:10281000FB69044A9342C0D1BB6918462037BD46C4
:1028200080BD00BF940400201015002080B582B048
:1028300000AF01211548FEF720FA00214FF0FF30CC
:10284000FFF7A0FF786001214FF0FF30FFF79AFFFC
:10285000786000210D48FEF710FA00210B48FEF7C2
:102860001CFA01216FF00100FFF78CFF7860002156
:102870006FF00100FFF786FF786001210348FEF743
:102880000CFA7B6818460837BD4680BD4002002020
:1028900080B586B000AF786000237B61FFF7AFF8AA
:1028A000F860FB68002B03D16FF018033B6166E012
:1028B00000213548FEF7E1F97B6803F00F03013B87
:1028C000032B3FD801A252F823F000BFDD280000FF
:1028D000FD280000272900004D2900002B4B1B6814
:1028E000002B08DD7B6803F40043002B03D16FF05D
:1028F00040033B613DE001237B612AE0234B1B68E1
:102900006FF00042934203D16FF02A033B6130E045
:102910001E4B1B6801331D4A1360FB689B685A1CE1
:10292000FB689A6015E0FB689B68002B10DDFB6874
:102930009B685A1EFB689A60144B1B68013B134A44
:10294000136005E06FF010033B6112E000BF00E090
:1029500000BF00210C48FEF7A0F97B69002B05D0D1
:10296000FFF764FF38613B69002B07DB074B1B68EF
:1029700006E000210448FEF790F900E000BF3B6943
:1029800018461837BD4680BD40020020D8260020DA
:1029900080B500AF00210748FEF76FF90648FEF743
:1029A000BDFF054B00229A6000210248FEF775F931
:1029B00000BF80BD40020020F40B002080B582B033
:1029C00000AF1A4B1B68002B2CD000211848FEF7D3
:1029D00054F9184B1A68154B9B68D31A154A1360A3
:1029E000124B00229A6012E0104B1B68083B7B6080
:1029F0007B6800221A6100210D48FEF74EF9002184
:102A00007868FFF72FFB00210948FEF736F90748E1
:102A1000FEF794FF0346002BE6D000210448FEF7A2
:102A20003CF900E000BF0837BD4680BDF40B002034
:102A300040020020D826002080B582B000AF1F4899
:102A4000FEF76CFF00237B6011E01D4A7B689B0151
:102A50001344103300221A607B689B01184A134408
:102A600016491846FEF77CFF7B6801337B607B6864
:102A70000F2BEADD1348FEF751FF00237B6015E0C2
:102A8000114A7B68342101FB03F31344083300220D
:102A90001A607B68342202FB03F30B4A1344094992
:102AA0001846FEF75DFF7B6801337B607B680F2B68
:102AB000E6DD002318460837BD4680BDA408002087
:102AC000A4040020EC0B0020AC08002080B400AF70
:102AD00000231846BD465DF8047B704780B483B080
:102AE00000AF78607B687A681A607B687A685A60A1
:102AF00000BF0C37BD465DF8047B704780B483B0DF
:102B000000AF78607B681B687A689A420CBF01232B
:102B10000023DBB218460C37BD465DF8047B7047D6
:102B200080B483B000AF786039603B685A687B68D6
:102B30005A607B683A681A603B685B687A681A601A
:102B40003B687A685A6000BF0C37BD465DF8047B6D
:102B5000704780B485B000AF78607B681B687A6886
:102B60009A4201D100230BE07B681B68FB60FB6885
:102B70001A687B681A60FB681B687A685A60FB6891
:102B800018461437BD465DF8047B704780B400AF2B
:102B9000054B1B68002BCCBF01230023DBB218467A
:102BA000BD465DF8047B7047E426002080B485B004
:102BB00000AFF860B9607A607B6803F00103002B16
:102BC00009D0FB685A69BB681340002B14BF01236E
:102BD0000023DBB209E0FB685A69BB681340BA689E
:102BE0009A420CBF01230023DBB218461437BD46BE
:102BF0005DF8047B704780B582B000AF0D48FFF7E9
:102C00006DFF0D4B3B600D4B7B600AE07B68002243
:102C10009A607B6807491846FFF782FF7B68183384
:102C20007B607A683B689A42F0D3002318460837E5
:102C3000BD4680BD800D0020800D0020000C0020CE
:102C400080B588B000AF78600923BB617B685A68A3
:102C5000BB69DB431340002B02D06FF00A033EE058
:102C600008F056F978612048FFF773FF38613B6937
:102C7000002B03D16FF02103FB611DE03B691B4A70
:102C80009B1ADB101A4A02FB03F30133FB603B691A
:102C90001846FFF723FF3B69FA689A607B681A6859
:102CA0003B69DA607B685A683B691A617B689A689D
:102CB0003B695A61FB68FB617B69002B0BD10D4BB3
:102CC0001A680D4B1B689A4205D00C4B1B68002BF1
:102CD00001D108F0C7FB786908F000F9FB691846D4
:102CE0002037BD4680BD00BF800D0020000C0020B5
:102CF000ABAAAAAA10150020141500200C1500205C
:102D000080B586B000AF786000237B617B68002BC4
:102D100002DD7B68102B02DD6FF0110332E07B686F
:102D20005A1E13465B001344DB00184A13443B61F0
:102D300008F0EEF8F8603B699B68002B03D16FF058
:102D400029037B610BE03B69184606F08DFE3B6969
:102D50000F491846FFF7E4FE3B6900229A60FB68C2
:102D6000002B0BD10B4B1A680B4B1B689A4205D0FA
:102D70000A4B1B68002B01D108F074FBF86808F0BF
:102D8000ADF87B6918461837BD4680BD000C0020A1
:102D9000800D002010150020141500200C150020B7
:102DA00080B58AB000AF7860396000233B627B68F1
:102DB000002B02DD7B68102B02DD6FF011036AE04F
:102DC0007B685A1E13465B001344DB00344A1344ED
:102DD000FB6108F09DF8B861FB699B68002B03D18B
:102DE0006FF029033B6243E0FB695A693B681A4371
:102DF000FB695A61FB691B687B6233E07B6A7B611C
:102E00007B6A1B687B627B691B6C3B617B695B6CCB
:102E1000FB60FA683969F869FFF7C8FE0346002BC2
:102E200020D07B699B6CFA6952691A60786906F058
:102E300066FDFB6803F02003002B0AD0FB695A698A
:102E40003B69DB431A40FB695A61FB695B69002BF4
:102E50000DD0FB6803F01003002B03D0FB690022A8
:102E60005A6105E0FB697A6A9A42C7D100E000BF67
:102E7000BB69002B0BD10B4B1A680B4B1B689A429A
:102E800005D00A4B1B68002B01D108F0EBFAB8699A
:102E900008F024F83B6A18462837BD4680BD00BFBD
:102EA000000C002010150020141500200C15002027
:102EB00080B586B000AF7860396000237B617B68A5
:102EC000002B02DD7B68102B02DD6FF011032CE07C
:102ED0007B685A1E13465B001344DB00154A1344FB
:102EE0003B6108F015F8F8603B699B68002B03D143
:102EF0006FF029037B6105E03B695A693B681A4022
:102F00003B695A61FB68002B0BD10B4B1A680B4BCA
:102F10001B689A4205D00A4B1B68002B01D108F0B0
:102F2000A1FAF86807F0DAFF7B6918461837BD4642
:102F300080BD00BF000C00201015002014150020DB
:102F40000C15002080B584B000AF786039607B68D4
:102F50001B6B5A1E13465B001344DB00054A1344E7
:102F6000FB607968F86806F0E3FD00BF1037BD46E6
:102F700080BD00BF000C002080B588B000AFF860B5
:102F8000B9607A603B6000237B61FB68002B02DD47
:102F9000FB68102B02DD6FF01103A3E0BB68002B70
:102FA00002D16FF010039DE07B6823F03103002B0A
:102FB00002D06FF0100395E0BB6AB3F1FF3F02DA75
:102FC0006FF010038EE0494B1B68002B0DD1FFF70B
:102FD000DDFD0346002B08D1454B1B68002B04D0B8
:102FE00007F089FF0346002B02D06FF0180379E049
:102FF000FB685A1E13465B001344DB003D4A134432
:10300000FB6107F085FFB861FB699B68002B03D16A
:103010006FF029037B6152E0FB691B6903F0080331
:10302000002B0AD1FB691846FFF768FD0346002B09
:1030300003D16FF028037B6141E07A68B968F869D1
:10304000FFF7B4FD0346002B18D0FB695A693B68B3
:103050001A607B6803F02003002B06D0FB695A69D5
:10306000BB68DB431A40FB695A617B6803F01003BD
:10307000002B24D0FB6900225A6120E0FB691B6908
:1030800003F00103002B01D01B4A00E01B4A184B40
:103090001B68DA62164B1B6807F11402DA63144BE3
:1030A0001B68BA681A64124B1B687A685A64104B22
:1030B0001B683A689A64B96AF86906F003FDBB694F
:1030C000002B0BD10A4B1A680D4B1B689A4205D096
:1030D000064B1B68002B01D108F0C4F9B86907F052
:1030E000FDFE7B6918462037BD4680BD0C150020CB
:1030F00010150020000C0020E0080100D408010099
:103100001415002080B586B000AF786039600023C8
:103110007B617B68002B02DD7B68102B02DD6FF08A
:10312000110335E07B685A1E13465B001344DB0035
:10313000194A13443B6107F0EBFEF8603B699B685A
:10314000002B03D16FF029037B610EE03B69DA6845
:103150003B681A603B69184606F0A1FC02463B68D2
:103160005A603B695A693B689A60FB68002B0BD137
:103170000A4B1A680A4B1B689A4205D0094B1B6818
:10318000002B01D108F06EF9F86807F0A7FE7B6903
:1031900018461837BD4680BD000C002010150020D1
:1031A000141500200C15002080B586B000AF7860A3
:1031B00039607B682F2B02D96FF0100331E03B6838
:1031C000002B0DD03B681B68012B02D96FF00A035E
:1031D00027E03B681B687B613B685B683B6103E001
:1031E00000237B6100233B6107F092FEF8607B685F
:1031F0003A697969184608F071FAB860FB68002BE3
:103200000BD10A4B1A680A4B1B689A4205D0094B2E
:103210001B68002B01D108F025F9F86807F05EFE65
:10322000BB6818461837BD4680BD00BF101500208A
:10323000141500200C15002080B500AF08F07EFAB0
:1032400000BF80BD80B483B000AF78607B687A68CF
:103250001A607B687A685A6000BF0C37BD465DF81B
:10326000047B704780B483B000AF78607B681B68D4
:103270007A689A420CBF01230023DBB218460C3750
:10328000BD465DF8047B704780B483B000AF7860C2
:1032900039603B685A687B685A607B683A681A6094
:1032A0003B685B687A681A603B687A685A6000BF5E
:1032B0000C37BD465DF8047B704780B483B000AF27
:1032C00078607B681B687A689A4209D07B685B6883
:1032D0007A6812681A607B681B687A6852685A605C
:1032E00000BF0C37BD465DF8047B704780B485B0E5
:1032F00000AF78607B681B687A689A4201D100232E
:103300000BE07B681B68FB60FB681A687B681A60CF
:10331000FB681B687A685A60FB6818461437BD461C
:103320005DF8047B704780B483B000AF786039608B
:103330000BE001223B689A407B681340002B01D0D0
:103340003B6806E03B6801333B603B681F2BF0DDC8
:10335000202318460C37BD465DF8047B704780B4C7
:1033600083B000AF78607B68D3F80C31002B03D0BA
:103370007B68D3F80C3105E07B681B687A68DB005A
:1033800013445B6818460C37BD465DF8047B7047F4
:1033900080B584B000AF786039603B6893F8263020
:1033A000FB6038687A68FB68DB0013445B68194689
:1033B000FFF76AFF7B68D3F808210121FB6801FA57
:1033C00003F31A437B68C3F808213B6893F828305D
:1033D00003F00203DBB2002B03D07B683A68C3F82A
:1033E0000C217B681B68FA689A4202DA7B68FA68EB
:1033F0001A6000BF1037BD4680BD80B584B000AFF5
:10340000786039603B6893F82630FB607B68D3F8BE
:103410000C313A689A4203D17B680022C3F80C2130
:103420003B681846FFF749FF3B6893F8283003F0E4
:103430000103DBB2002B07D03A6892F8283023F062
:10344000010382F8283029E0FB68DB007A68134426
:1034500004331846FFF706FF0346002B1BD07B689A
:10346000D3F808210121FB6801FA03F3DB431A407A
:103470007B68C3F808217B681B68FA689A420CD104
:103480007B68D3F80831F9681846FFF74CFF02460D
:103490007B681A6002E000BF00E000BF1037BD4645
:1034A00080BD80B584B000AF786007F031FDB860B2
:1034B0002C4B1B6893F82830C3F34003DBB2FB604E
:1034C000FB68002B33D17B681B68002B13D17B6812
:1034D0001846FFF7B7FE0123FB60224B1A6892F8EB
:1034E000283043F0020382F828301E4B1B681E4A26
:1034F000C2F80C311BE01B4B1B6819461A48FFF73A
:103500007CFF184B1A6892F8283043F0010382F8C8
:103510002830144B1B681A467B6819461046FFF783
:10352000B3FE1148FFF71BFF0346104A1360BB6848
:10353000002B0BD10B4B1A680C4B1B689A4205D021
:103540000B4B1B68002B01D107F08CFFB86807F00C
:10355000C5FCFB68002B00D1A7E700BF1037BD46B4
:1035600080BD00BF10150020181500201415002084
:103570000C15002080B584B000AF786007F0C8FC5F
:10358000F860234B1A6892F8283023F0020382F87F
:103590002830204B0022C3F80C217B681846FFF727
:1035A000A5FEB860BB68002B03D17B6800221A60BF
:1035B00011E0BA6892F8283023F0010382F828302D
:1035C000BA6892F8283043F0020382F82830B968CC
:1035D0001048FFF7DDFE0F48FFF7C1FE03460E4A15
:1035E0001360FB68002B0BD1094B1A680A4B1B6850
:1035F0009A4205D0094B1B68002B01D107F032FF1E
:10360000F86807F06BFC00BF1037BD4680BD00BFF7
:103610001015002018150020141500200C1500208E
:1036200080B483B000AF78607B687A681A607B688A
:103630007A685A6000BF0C37BD465DF8047B70475E
:1036400080B483B000AF78607B681B687A689A4268
:103650000CBF01230023DBB218460C37BD465DF8D2
:10366000047B704780B483B000AF786039603B68FA
:103670005A687B685A607B683A681A603B685B6886
:103680007A681A603B687A685A6000BF0C37BD469A
:103690005DF8047B704780B485B000AF78607B68CC
:1036A0001B687A689A4201D100230BE07B681B6893
:1036B000FB60FB681A687B681A60FB681B687A68A5
:1036C0005A60FB6818461437BD465DF8047B7047A6
:1036D00080B400AF054B1B68002BCCBF0123002337
:1036E000DBB21846BD465DF8047B7047E426002037
:1036F00080B485B000AF786039603B68FB6007E05C
:10370000BB685A687B685B689A4208DCBB68FB60F0
:10371000FB681B68BB60BB68002BF1D100E000BFF9
:103720007B68BA681A60FB687A681A6000BF143751
:10373000BD465DF8047B704780B582B000AF0E488F
:10374000FFF76EFF0D4B3B600D4B7B600AE07B6823
:1037500000229A607B6808491846FFF783FF7B6860
:103760001C337B607A683B689A42F0D3002318468A
:103770000837BD4680BD00BF680E0020680E0020DF
:10378000880D002080B588B000AF78600323BB614E
:103790007B685A68BB69DB431340002B02D06FF093
:1037A0000A033DE007F0B4FB78611F48FFF773FFA1
:1037B00038613B69002B03D16FF02103FB611CE0F2
:1037C0003B691A4A9B1A9B10194A02FB03F3013307
:1037D000FB603B691846FFF723FF3B69FA689A6074
:1037E0007B681A683B69DA607B685A683B691A61D2
:1037F0003B6900225A61FB68FB617B69002B0BD19E
:103800000C4B1A680C4B1B689A4205D00B4B1B687B
:10381000002B01D107F026FE786907F05FFBFB69FA
:1038200018462037BD4680BD680E0020880D002058
:10383000B76DDBB610150020141500200C15002004
:1038400080B586B000AF786000237B617B68002B79
:1038500002DD7B68082B02DD6FF0110332E07B682C
:103860005A1E1346DB009B1A9B00184A13443B6107
:1038700007F04EFBF8603B699B68002B03D16FF0AB
:1038800029037B610BE03B69184606F0EDF83B69C4
:103890000F491846FFF7E6FE3B6900229A60FB6875
:1038A000002B0BD10B4B1A680B4B1B689A4205D0AF
:1038B0000A4B1B68002B01D107F0D4FDF86807F014
:1038C0000DFB7B6918461837BD4680BD880D00206A
:1038D000680E002010150020141500200C15002083
:1038E00080B586B000AF7860396000237B617B686B
:1038F000002B02DD7B68082B02DD6FF0110365E011
:103900007B685A1E1346DB009B1A9B00314A134406
:103910003B6107F0FDFAF8603B699B68002B03D11F
:103920006FF029037B613EE03B691B6903F00203F2
:10393000002B07D03B685B68002B03DC6FF01003A3
:103940007B6130E03B691846FFF77AFE0346002BA7
:103950000AD13B691B68BB60BB681B6C3A681A6084
:10396000B86805F0CCFF1EE03B691B6903F0020359
:10397000002B06D03B69143319463868FFF7B8FEB0
:1039800011E03B6800221A603B695B69002B03D1A0
:103990003B693A685A6103E03B699B693A681A607F
:1039A0003B693A689A61FB68002B0BD10A4B1A6895
:1039B0000A4B1B689A4205D0094B1B68002B01D1AA
:1039C00007F050FDF86807F089FA7B691846183748
:1039D000BD4680BD880D0020101500201415002064
:1039E0000C15002080B584B000AF786039607B682A
:1039F0001B6B5A1E1346DB009B1A9B00054A13449F
:103A0000FB607968F86806F093F800BF1037BD4690
:103A100080BD00BF880D002080B588B000AFF86081
:103A2000B9607A6000237B61FB68002B02DDFB68D4
:103A3000082B02DD6FF0110369E07B68B3F1FF3FF3
:103A400002DA6FF0100362E0334B1B68002B0DD1DC
:103A5000FFF73EFE0346002B08D1304B1B68002BBE
:103A600004D007F048FA0346002B02D06FF0180389
:103A70004DE0FB685A1E1346DB009B1A9B00284A48
:103A80001344FB6107F044FAB861FB699B68002BA3
:103A900003D16FF029037B6126E0FB695B69002B92
:103AA00009D0FB695A69BB681A60BB681B681A6851
:103AB000FB695A6118E0FB691B6903F00103002BE5
:103AC00001D0184A00E0184A144B1B68DA62134B05
:103AD0001B6807F11402DA63104B1B68BA681A649A
:103AE0007968F86905F0EEFFBB69002B0BD10B4B31
:103AF0001A680E4B1B689A4205D0074B1B68002BB7
:103B000001D107F0AFFCB86907F0E8F97B69184606
:103B10002037BD4680BD00BF0C15002010150020C9
:103B2000880D0020F8080100EC08010014150020A1
:103B300080B586B000AF7860396000237B617B6818
:103B4000002B02DD7B68082B02DD6FF0110335E0EE
:103B50007B685A1E1346DB009B1A9B00194A1344CC
:103B60003B6107F0D5F9F8603B699B68002B03D1F6
:103B70006FF029037B610EE03B69DA683B681A60ED
:103B80003B69184605F08BFF02463B685A603B696B
:103B90005A693B689A60FB68002B0BD10A4B1A6884
:103BA0000A4B1B689A4205D0094B1B68002B01D1B8
:103BB00007F058FCF86807F091F97B691846183748
:103BC000BD4680BD880D0020101500201415002072
:103BD0000C15002080B483B000AF78607B687A68F1
:103BE0001A607B687A685A6000BF0C37BD465DF882
:103BF000047B704780B483B000AF786039603B6865
:103C00005A687B685A607B683A681A603B685B68F0
:103C10007A681A603B687A685A6000BF0C37BD4604
:103C20005DF8047B704780B483B000AF78607B6838
:103C30001B687A689A4209D07B685B687A68126868
:103C40001A607B681B687A6852685A6000BF0C373C
:103C5000BD465DF8047B704780B485B000AF7860E6
:103C600039607B680C33FB607B681B68002B00DAD3
:103C700003339B101A463B6893422BDD0023BB6045
:103C800010E0FB6808335B68BB60BA683B689A4227
:103C900008DCBA683B689A4202DAFB681B6824E0D9
:103CA000FB6822E0FB685B68FB607B680C33FA68AA
:103CB0009A42E6D1BA683B689A4202DBFB681B680D
:103CC00013E0FB6811E0FB6808335B681A463B6849
:103CD000934208DDFB681B68FB607B680C33FA6865
:103CE0009A42F0D100E000BFFB6818461437BD4689
:103CF0005DF8047B704780B584B000AF78603960B0
:103D00003B681A683B680833D31AFB60F968786827
:103D1000FFF7A2FFB8603B685B6823F001031A4617
:103D20003B685A607B680C33BA689A4227D0BB68FC
:103D300008335B681A46FB68934220D1BB6803F1E5
:103D400008023B68103312681A60BB6808333A688F
:103D500010321A603B681033BA6808325A603B6808
:103D600010331B68002B05D03B6810331B683A6882
:103D700010325A603B68083300221A600EE03B683C
:103D80000833B9681846FFF735FF3B681033002247
:103D90001A603B681033FA685A6000BF00BF1037E2
:103DA000BD4680BD80B582B000AF78607B681B687F
:103DB000002B15D17B6803F108027B6808335B6830
:103DC00012681A607B6808331B68002B20D07B6860
:103DD00003F108027B6808331B6852685A6017E0D9
:103DE0007B6808331B68002B0FD07B6808331B6887
:103DF000083B79681846FFF7FDFE7B6803F108026F
:103E00007B6808331B6852685A607868FFF70BFFBD
:103E100000BF0837BD4680BD80B483B000AF786076
:103E200039603B687A685A607B681A683B681A6038
:103E30007B681B685B6803F001023B681A437B6880
:103E40001B685A607B683A681A6000BF0C37BD4631
:103E50005DF8047B704780B483B000AF78607B6806
:103E60005B6823F001031A467B681B6813607B685C
:103E70001B685B6803F001027B685B6823F0010349
:103E80001A437B681B685A6000BF0C37BD465DF85B
:103E9000047B704780B586B000AF78607B68002BEC
:103EA00001DC002345E07B680F2B02D810237B60E8
:103EB00004E07B68073323F007037B6007F028F8F2
:103EC00038611E4B1B6879681846FFF7C5FE78619C
:103ED0001A4B1B680C337A699A4202D100237B612A
:103EE00023E07869FFF75EFF7B69083BFB607B6935
:103EF00008335B681A467B68D31A172B0ED97B6888
:103F00000833FA681344BB60B968F868FFF784FFA8
:103F10000A4B1B68B9681846FFF7EDFEFB685B6843
:103F200043F001031A46FB685A60386906F0D6FF71
:103F30007B6918461837BD4680BD00BF700E002053
:103F400080B584B000AF786039607B683A6802FB66
:103F500003F3FB60F868FFF79DFFB860BB68002BB8
:103F600001D1002305E0FA680021B868FCF745FF9D
:103F7000BB6818461037BD4680BD80B586B000AF1F
:103F8000786039603B68002B08D03868FFF782FF03
:103F900078617B69002B03D100231EE000237B6145
:103FA0007B68002B18D07B69002B12D07B68083B04
:103FB0003B613B691A683B690833D31AFB603A6876
:103FC000FB689342A8BF13461A4679687869FCF7E4
:103FD00060FF786800F005F87B6918461837BD4621
:103FE00080BD80B584B000AF786006F091FFB86006
:103FF0007B68083BFB60FB685B6823F001031A46A3
:10400000FB685A60FB681B685B6803F00103002BC8
:104010000AD1FB681B6808331846FFF7C3FEFB682C
:104020001B681846FFF717FFFB685B685B6803F0C7
:104030000103002B0CD1FB685B68FB60FB68083355
:104040001846FFF7AFFEFB681B681846FFF703FF33
:10405000064B1B68F9681846FFF74DFEB86806F076
:104060003DFF00BF1037BD4680BD00BF700E002071
:1040700080B500AF064B1B6804331846FFF7AAFD56
:10408000034B1B680C331846FFF7A4FD00BF80BD2F
:10409000700E002080B582B000AF2E4B1B6803333A
:1040A00023F003031A462B4B1A602A4B1B682A4A3B
:1040B0001360284B1B6814331A46264B1A60254B95
:1040C0001B68073323F007031A46224B1A60214B63
:1040D0001B687B60214B1B681A461E4B1B68D31A5A
:1040E000A3F110021C4B1B681A601C4B1B68194A79
:1040F0001360FFF7BDFF184B1B681B6808337A6815
:1041000013443B60144B1B68043339681846FFF7AF
:1041100083FE114B1B68043379681846FFF77CFE59
:104120003B685B6843F001031A463B685A600A4BE0
:104130001B689B6843F00102074B1B689A60064BA3
:104140001B6879681846FFF7D6FD00231846083724
:10415000BD4680BDE8260020700E0020EC26002021
:1041600080B483B000AF78607B687A681A607B683F
:104170007A685A6000BF0C37BD465DF8047B704713
:1041800080B483B000AF78607B681B687A689A421D
:104190000CBF01230023DBB218460C37BD465DF887
:1041A000047B704780B483B000AF786039603B68AF
:1041B0005A687B685A607B683A681A603B685B683B
:1041C0007A681A603B687A685A6000BF0C37BD464F
:1041D0005DF8047B704780B485B000AF78607B6881
:1041E0001B687A689A4201D100230BE07B681B6848
:1041F000FB60FB681A687B681A60FB681B687A685A
:104200005A60FB6818461437BD465DF8047B70475A
:1042100080B400AF054B1B68002BCCBF01230023EB
:10422000DBB21846BD465DF8047B7047E4260020EB
:1042300080B483B000AF78607B6800221A6000BF52
:104240000C37BD465DF8047B704780B483B000AF87
:1042500078607B685B6A7A68D269134418460C37C9
:10426000BD465DF8047B704780B582B000AF104852
:10427000FFF776FF0F4B3B600F4B7B600FE07B68D7
:1042800000229A607B6830331846FFF7D1FF7B68C5
:1042900007491846FFF786FF7B6838337B607A68EA
:1042A0003B689A42EBD3002318460837BD4680BDD1
:1042B0003410002034100020740E002080B588B027
:1042C00000AF786040F22133BB617B685A68BB69FC
:1042D000DB431340002B02D06FF00A039DE07B68A4
:1042E0009B68002B02DC6FF0100396E07B68DB68B4
:1042F000002B02DC6FF010038FE04A4B1B68002B91
:104300000DD1FFF785FF0346002B08D1464B1B68F4
:10431000002B04D006F0EFFD0346002B02D06FF017
:1043200018037AE07B68DB68033323F003037B61C7
:104330007B689A687B6902FB03F33B617B685B687F
:1043400003F02003002B0BD07B68DB687A699A426C
:1043500002D06FF0100360E07B681B69FB6109E02D
:104360003869FFF797FDF861FB69002B02D16FF008
:10437000200352E006F0CCFD2C48FFF72CFFF8603C
:10438000002006F0ABFDFB68002B0BD17B685B685F
:1043900003F02003002B02D1F869FFF722FE6FF033
:1043A00021033AE0FB6830331846FFF77AF8FB68E0
:1043B0001F4A9B1ADB101F4A02FB03F30133BB6049
:1043C000FB681846FFF7CCFE7B681A68FB68DA606A
:1043D0007B685A68FB681A617B689A68FB681A6296
:1043E000FB681A6AFB685A61FB687A699A61FB6824
:1043F0003A69DA61FB68FA695A62FB685A6AFB68D3
:104400009A62FB680022DA62FB68BA689A60FB680D
:1044100030331846FFF7AEF8BB6818462037BD4664
:1044200080BD00BF0C1500201015002034100020A6
:10443000740E0020B76DDBB680B586B000AF786033
:1044400000237B6100233B610023FB607B68002B22
:1044500002DD7B68082B02DD6FF0110352E02B4B6D
:104460001B68002B0DD1FFF7D3FE0346002B08D1AC
:10447000274B1B68002B04D006F03DFD0346002BA4
:1044800002D06FF018033DE07B685A1E1346DB0034
:104490009B1ADB001F4A1344BB60BB6830331846CD
:1044A000FEF7FFFFBB689B68002B03D16FF0290369
:1044B000FB6016E006F02CFDBB685B6A7B61BB68A5
:1044C0001B693B61BB68184605F0CEFABB68124910
:1044D0001846FFF767FEBB6800229A60002006F0CE
:1044E000FDFCBB6830331846FFF744F87B69002BAE
:1044F00007D03B6903F02003002B02D17869FFF756
:1045000070FDFB6818461837BD4680BD0C150020AD
:1045100010150020740E00203410002080B584B0E7
:1045200000AF786039607B681B6B5A1E1346DB0056
:104530009B1ADB00054A1344FB607968F86805F0B4
:10454000F7FA00BF1037BD4680BD00BF740E0020D3
:1045500080B588B000AFF860B9607A6000233B6135
:10456000FB68002B02DDFB68082B02DD6FF01103F6
:1045700090E07B68B3F1FF3F02DA6FF0100389E04F
:10458000464B1B68002B0DD1FFF742FE0346002B64
:1045900008D1434B1B68002B04D006F0ACFC03464B
:1045A000002B02D06FF0180374E0FB685A1E13460C
:1045B000DB009B1ADB003B4A1344FB61FB69303391
:1045C0001846FEF76EFFFB699B68002B03D16FF066
:1045D00029033B6122E0FB691B6A002B25DDFB6997
:1045E000DB6A002B0AD0FB69DB6ABB61BB691A6816
:1045F000FB69DA62BB68BA691A600AE0FB699A6A09
:10460000BB681A60FB699B6AFA6992691A44FB6984
:104610009A62FB691B6A5A1EFB691A62FB69303396
:104620001846FEF7A7FF3B6934E000BF06F070FCB8
:104630007861FB691B6903F00103002B01D01A4A62
:1046400000E01A4A164B1B68DA62154B1B6807F12B
:104650001002DA63124B1B68BA681A647968F86949
:1046600005F030FAFB6930331846FEF783FF7B69AB
:10467000002B0BD10A4B1A680D4B1B689A4205D0D0
:10468000064B1B68002B01D106F0ECFE786906F0A2
:1046900025FC3B6918462037BD4680BD0C1500201F
:1046A00010150020740E00201009010004090100FB
:1046B0001415002080B586B000AF78603960002303
:1046C0007B617B68002B02DD7B68082B02DD6FF0CD
:1046D000110375E03C4B1B68002B0DD1FFF798FDD3
:1046E0000346002B08D1394B1B68002B04D006F081
:1046F00002FC0346002B02D06FF0180360E07B68D9
:104700005A1E1346DB009B1ADB00314A13443B61FF
:104710003B6930331846FEF7C4FE3B699B68002BAB
:1047200003D16FF029037B6144E03B695B6A3A681F
:104730009A4213D33869FFF788FD02463B689342DB
:104740000CD23B695B6A3A68D31A3A69926993FB67
:10475000F2F101FB02F29B1A002B03D06FF0100361
:104760007B6127E006F0D4FB3B691846FFF708FDA4
:104770000346002B0DD13B691B68BB60BB681B6CFB
:104780003A681A60B86805F0BAF8002006F0A6FB8F
:1047900010E0002006F0A2FB3B68FB603B69DA6A90
:1047A000FB681A603B69FA68DA623B691B6A5A1C4B
:1047B0003B691A623B6930331846FEF7DBFE7B69C2
:1047C00018461837BD4680BD0C1500201015002076
:1047D000740E002080B584B000AF7860396000238B
:1047E000FB607B68002B02DD7B68082B02DD6FF02D
:1047F000110344E0244B1B68002B0DD1FFF708FD8B
:104800000346002B08D1214B1B68002B04D006F077
:1048100072FB0346002B02D06FF018032FE07B6879
:104820005A1E1346DB009B1ADB00194A1344BB6077
:10483000BB6830331846FEF734FEBB689B68002B1C
:1048400003D16FF02903FB6013E006F061FBBB6846
:10485000184605F024F902463B685A60002006F02D
:104860003DFBBB68DA683B681A60BB681A6A3B6844
:104870009A60BB6830331846FEF77CFEFB6818462A
:104880001037BD4680BD00BF0C150020101500205C
:10489000740E002080B483B000AF78607B687A68C3
:1048A0001A607B687A685A6000BF0C37BD465DF8B5
:1048B000047B704780B483B000AF78607B681B686E
:1048C0007A689A420CBF01230023DBB218460C37EA
:1048D000BD465DF8047B704780B483B000AF78605C
:1048E00039603B685A687B685A607B683A681A602E
:1048F0003B685B687A681A603B687A685A6000BFF8
:104900000C37BD465DF8047B704780B485B000AFBE
:1049100078607B681B687A689A4201D100230BE0BB
:104920007B681B68FB60FB681A687B681A60FB6821
:104930001B687A685A60FB6818461437BD465DF8F4
:10494000047B704780B400AF054B1B68002BCCBFC5
:1049500001230023DBB21846BD465DF8047B704797
:10496000E426002080B483B000AF78607B680F2B12
:1049700001DC10237B607B68073323F007031846B4
:104980000C37BD465DF8047B704780B582B000AF40
:1049900078607B6820331846FFF78CFF0346002BB6
:1049A00001D0002303E07B685B6A08335B6818462C
:1049B0000837BD4680BD80B582B000AF0D48FFF717
:1049C00069FF0D4B3B600D4B7B600AE07B6800226A
:1049D0009A607B6807491846FFF77EFF7B6834338F
:1049E0007B607A683B689A42F0D300231846083708
:1049F000BD4680BD0C1100200C1100203C10002091
:104A000080B588B000AF786039607B6814337B6113
:104A10007B6818333A689A4203D17B681B6BFB6151
:104A200002E03B680833FB613B681A687B68283307
:104A30009A4206D17B681B6B7A6852691344BB614A
:104A400002E03B681B68BB61BA69FB69D31A3B6132
:104A500039697869FFF700F9F8603B685B6823F013
:104A600001031A463B685A607B690C33FA689A4224
:104A700026D0FB6808335B681A463B6993421FD116
:104A8000FB6803F10802FB69083312681A60FB68CF
:104A90000833FA6908321A60FB690833FA68083289
:104AA0005A60FB6908331B68002B05D0FB6908338B
:104AB0001B68FA6908325A60FB6900221A600CE030
:104AC000F968F869FFF708FFFB69083300221A60EC
:104AD000FB6908333A695A6000BF00BF2037BD4602
:104AE00080BD80B586B000AF786039607B681433D4
:104AF0007B6139687869FFF7AFF838617B690C33FF
:104B00003A699A4201D1002334E03869FFF74AF943
:104B10007B681B6B3A699A4202D17B68183301E0CB
:104B20003B69083BFB603B6908335B681A463B689E
:104B3000D31A172B16D93B683A691344BB60B9687E
:104B4000F868FFF769F9BB681A687B6828339A42EE
:104B500004D1B9687868FFF753FF03E0B968786952
:104B6000FFF7C9F8FB685B6843F001031A46FB686E
:104B70005A603B6918461837BD4680BD80B586B07F
:104B800000AF786039607B6814333B617B681B6BD6
:104B90003A689A4202D17B68183301E03B68083BCF
:104BA0007B617B695B6803F00103002B02D16FF02E
:104BB00010034AE07B695B6823F001031A467B69B6
:104BC0005A607B691B685B6803F00103002B0AD104
:104BD0007B691B6808331846FFF7E4F87B691B689C
:104BE0001846FFF738F97B695B685B6803F00103DF
:104BF000002B15D17B695B687B617B6818337A6910
:104C00009A4202D17B681B6B01E07B690833FB6031
:104C1000F868FFF7C7F87B691B681846FFF71BF9B0
:104C20007B6818337A699A4205D07B691A687B6879
:104C300028339A4204D179697868FFF7E1FE03E0EE
:104C400079693869FFF757F8002318461837BD46C9
:104C500080BD80B586B000AF786018E07B681B68C7
:104C60007B617B691B6C3B617868FFF78EFE0246B7
:104C70003B69934213DC39697868FFF732FFF860CB
:104C80007B695B6CFA681A60786904F038FE7B68AF
:104C90001846FFF70FFE0346002BDFD000E000BFF1
:104CA00000BF1837BD4680BD80B582B000AF7860C8
:104CB0007B6818331846FFF7EDFD7B6820331846F4
:104CC000FFF7E8FD7B6803F118027B68283319467B
:104CD0001046FFF7A1F87B68DB6A43F001031A4630
:104CE0007B68DA627B68183319467868FFF788FEBC
:104CF00000BF0837BD4680BD80B58AB000AF786080
:104D000040F22133FB617B685A68FB69DB43134047
:104D1000002B02D06FF00A0393E07B689B68002BA6
:104D200005DD7B689B681A46484B9A4202D96FF0B2
:104D3000100386E0464B1B68002B0DD1FFF702FEE7
:104D40000346002B08D1434B1B68002B04D006F010
:104D5000D2F80346002B02D06FF0180371E07B6895
:104D60009B681846FFF7FEFDB8617B685B6803F03F
:104D70002003002B0BD07B689B68BA699A4202D053
:104D80006FF010035DE07B68DB687B6209E0B86967
:104D9000FFF780F878627B6A002B02D16FF0200366
:104DA0004FE006F0B5F878612B48FFF7AEFD3861AB
:104DB0003B69002B03D16FF021033B6222E03B698A
:104DC000264A9B1A9B10264A02FB03F30133FB6021
:104DD0003B691846FFF75EFD3B69FA689A607B689D
:104DE0001A683B69DA607B685A683B691A613B69FB
:104DF000BA695A613B697A6A1A633869FFF754FFE6
:104E0000FB683B627B69002B0BD1124B1A68154B78
:104E10001B689A4205D00E4B1B68002B01D106F08F
:104E200021FB786906F05AF83B6A002B08DA7B68A8
:104E30005B6803F02003002B02D1786AFFF7D1F8FA
:104E40003B6A18462837BD4680BD00BFF8FFFF7F8C
:104E50000C150020101500200C1100203C10002023
:104E6000C54EECC41415002080B588B000AF786042
:104E70000023FB610023BB6100237B617B68002B67
:104E800002DD7B68042B02DD6FF0110357E02E4B2F
:104E90001B68002B0DD1FFF755FD0346002B08D1F1
:104EA0002A4B1B68002B04D006F025F80346002B84
:104EB00002D06FF0180342E07B68013B342202FB12
:104EC00003F3234A13443B6106F022F8F8603B6980
:104ED0009B68002B03D16FF029037B6111E03B69D4
:104EE0001B6BFB613B691B69BB613B69184604F0A6
:104EF000BBFD3B6917491846FFF7EEFC3B690022F2
:104F00009A60FB68002B0BD1104B1A68124B1B6880
:104F10009A4205D00C4B1B68002B01D106F0A2FA77
:104F2000F86805F0DBFF7B69002B07D1BB6903F054
:104F30002003002B02D1F869FFF753F87B6918466C
:104F40002037BD4680BD00BF0C1500201015002085
:104F50003C1000200C1100201415002080B584B0F6
:104F600000AF786039607B681B6B013B342202FB29
:104F700003F3084A1344FB603B68002B03DB7968AA
:104F8000F86804F0D5FDF868FFF763FE00BF10373E
:104F9000BD4680BD3C10002080B582B000AF786077
:104FA0004FF0FF317868FFF7D9FF00BF0837BD46E3
:104FB00080BD80B588B000AFF860B9607A603B60B2
:104FC0000023FB6100233B61FB68002B02DDFB68D3
:104FD000042B02DD6FF011038CE0BB68002B03DDB6
:104FE000BB68464A934202D96FF0100382E03B68E7
:104FF000B3F1FF3F02DA6FF010037BE0404B1B6818
:10500000002B0DD1FFF79EFC0346002B08D13D4B32
:105010001B68002B04D005F06EFF0346002B02D066
:105020006FF0180366E0FB68013B342202FB03F3D8
:10503000354A1344BB61B868FFF794FCB86005F0CB
:1050400067FF7861BB699B68002B03D16FF0290370
:105050003B613CE0BB695B69BA689A4203DD6FF073
:1050600010033B6133E0274B1B681946B86904F015
:1050700071FD0246234B1B689A420BD1B968B8698F
:10508000FFF72FFDF861FB69002B03D07B68FA69FD
:105090001A601CE0BB691B6903F00103002B01D0FF
:1050A0001A4A00E01A4A174B1B68DA62154B1B6854
:1050B00007F11002DA63134B1B68BA681A64114BCC
:1050C0001B687A685A643968B86904F0FBFC7B692C
:1050D000002B0BD10B4B1A680E4B1B689A4205D064
:1050E000074B1B68002B01D106F0BCF9786905F06D
:1050F000F5FE3B6918462037BD4680BDF8FFFF7FAF
:105100000C150020101500203C100020280901007B
:105110001C0901001415002080B586B000AF78602E
:10512000396000237B617B68002B02DD7B68042BE8
:1051300002DD6FF0110358E02E4B1B68002B0DD1E0
:10514000FFF700FC0346002B08D12B4B1B68002BFC
:1051500004D005F0D0FE0346002B02D06FF01803F8
:1051600043E07B68013B342202FB03F3234A1344F0
:105170003B6105F0CDFEF8603B699B68002B03D1D5
:105180006FF029037B611DE03B691B6B3A689A4213
:1051900007D33B691B6B3A69526913443A689A42D8
:1051A00003D96FF010037B610CE039683869FFF7B1
:1051B000E5FC78617B69002B03DB3869FFF749FD6B
:1051C00000E000BFFB68002B0BD10B4B1A680C4BA7
:1051D0001B689A4205D0074B1B68002B01D106F0D3
:1051E00041F9F86805F07AFE7B6918461837BD4624
:1051F00080BD00BF0C150020101500203C100020C1
:105200001415002080B58AB000AF786039600023A3
:10521000BB617B68002B02DD7B68042B02DD6FF035
:10522000110373E03B4B1B68002B0DD1FFF78AFB8A
:105230000346002B08D1384B1B68002B04D005F027
:105240005AFE0346002B02D06FF018035EE07B6825
:10525000013B342202FB03F3304A13447B6105F027
:1052600057FE38617B699B68002B03D16FF02903DF
:10527000BB6138E07B69DA683B681A607B69184675
:1052800004F00DFC02463B685A600023FB617B6919
:105290001B6A7B6219E07B6A08335B68FB60FA6912
:1052A000FB681344FB617B6A08331B683B6206E0C2
:1052B000FA69FB681344FB613B6A1B683B623B6A0B
:1052C000002BF5D17B6A1B687B627B6920337A6A8D
:1052D0009A42E0D13B68FA699A607869FFF755FB1A
:1052E00002463B68DA603B69002B0BD10A4B1A6817
:1052F0000B4B1B689A4205D0064B1B68002B01D153
:1053000006F0B0F8386905F0E9FDBB6918462837A2
:10531000BD4680BD0C150020101500203C1000205B
:105320001415002080B483B000AF78607B687A6881
:105330001A607B687A685A6000BF0C37BD465DF81A
:10534000047B704780B483B000AF78607B681B68D3
:105350007A689A420CBF01230023DBB218460C374F
:10536000BD465DF8047B704780B483B000AF7860C1
:1053700039603B685A687B685A607B683A681A6093
:105380003B685B687A681A603B687A685A6000BF5D
:105390000C37BD465DF8047B704780B485B000AF24
:1053A00078607B681B687A689A4201D100230BE021
:1053B0007B681B68FB60FB681A687B681A60FB6887
:1053C0001B687A685A60FB6818461437BD465DF85A
:1053D000047B704780B400AF054B1B68002BCCBF2B
:1053E00001230023DBB21846BD465DF8047B7047FD
:1053F000E426002080B483B000AF786039603B6859
:1054000004337A68526A934294BF01230023DBB2CB
:1054100018460C37BD465DF8047B704780B483B0F6
:1054200000AF78607B685A6A7B68DB699A420CBF80
:1054300001230023DBB218460C37BD465DF8047B20
:10544000704780B582B000AF0D48FFF76BFF0D4B82
:105450003B600D4B7B600AE07B6800229A607B68B2
:1054600007491846FFF780FF7B6834337B607A6812
:105470003B689A42F0D3002318460837BD4680BDEA
:10548000B4120020B41200201411002080B588B09E
:1054900000AFF860B9607A60FB68DB6AFB61FB68AB
:1054A0001B6BBB61FB685B6A1A467B68033323F0A6
:1054B0000303D31A043B1A46FB685A62FB69BA69B4
:1054C00013447A681A60FB690433FB61FB68DB698B
:1054D000FA699A4201DB0023FB61FB68DA69FB6928
:1054E000D31A7B617A697B689A4211DAFB69BA69DF
:1054F00013447A69B9681846FBF7CBFC7B69BA6834
:105500001344BB607A687B69D31A7B600023FB611C
:10551000FB69BA6913447A68B9681846FBF7B9FCA5
:105520007B68033323F00303FA691344FB61FB68D0
:10553000DB69FA699A4201DB0023FB61FB68FA69C7
:10554000DA6200BF2037BD4680BD80B584B000AFB1
:10555000786016E07B681B68FB60FB685B6CBB6077
:10556000B9687868FFF746FF0346002B11D0FB6847
:105570001B6CBA6819467868FFF788FFF86804F072
:10558000BEF97B681846FFF7DDFE0346002BE1D02D
:1055900000E000BF00BF1037BD4680BD80B58AB0B7
:1055A00000AF78602123FB617B685A68FB69DB43AD
:1055B0001340002B02D06FF00A0398E07B689B68D1
:1055C000002B02DA6FF0100391E07B68DB68002BA0
:1055D00002DC6FF010038AE07B689B68033323F0E2
:1055E0000303BB61BB69002B1BDD7B685B6803F0B9
:1055F0002003002B0BD07B689B68BA699A4202D0CB
:105600006FF0100373E07B681B697B620BE0B86985
:10561000FEF740FC78627B6A002B04D16FF0200318
:1056200065E000237B6205F073FC78613248FFF788
:10563000B4FE38613B69002B03D16FF021033B625C
:1056400033E03B692D4A9B1A9B102D4A02FB03F362
:105650000133FB603B691846FFF764FE3B69FA685B
:105660009A607B681A683B69DA607B685A683B69B4
:105670001A613B6914331846FFF754FE3B697A6A96
:105680001A633B69BA695A623B695A6A3B69DA61D3
:105690007B68DA683B691A623B690022DA623B691F
:1056A000DA6A3B699A62FB683B627B69002B0BD12B
:1056B000144B1A68144B1B689A4205D0134B1B6895
:1056C000002B01D105F0CEFE786905F007FC3B6A9E
:1056D000002B0BDA7B6A002B08D07B685B6803F039
:1056E0002003002B02D1786AFEF77BFC3B6A184648
:1056F0002837BD4680BD00BFB41200201411002021
:10570000C54EECC410150020141500200C15002007
:1057100080B586B000AF786000237B6100233B61D9
:105720007B68002B02DD7B68082B02DD6FF0110324
:1057300045E07B68013B342202FB03F3224A134419
:10574000FB6005F0E5FBB860FB689B68002B03D1AC
:105750006FF029033B6113E0FB681B6B7B61FB6807
:105760001433184604F080F9FB68184604F07CF9FD
:10577000FB6816491846FFF7F7FDFB6800229A60A0
:10578000BB68002B0BD1124B1A68124B1B689A4254
:1057900005D0114B1B68002B01D105F063FEB868E2
:1057A00005F09CFB7B69002B08D0FB681B6903F0AC
:1057B0002003002B02D17869FEF713FC3B691846E1
:1057C0001837BD4680BD00BF14110020B412002060
:1057D00010150020141500200C15002080B584B091
:1057E00000AF786039607B681B6B013B342202FBA1
:1057F00003F3084A1344FB603B68002B03DB796822
:10580000F86804F095F9F868FFF79FFE00BF1037BD
:10581000BD4680BD1411002080B582B000AF786015
:105820004FF0FF317868FFF7D9FF00BF0837BD465A
:1058300080BD80B588B000AFF860B9607A603B6029
:1058400000233B61FB68002B02DDFB68082B02DDB7
:105850006FF01103B3E07B68002B02DC6FF01003E4
:10586000ADE03B68B3F1FF3F02DA6FF01003A6E052
:105870003B68002B14D0544B1B68002B0DD1FFF755
:10588000A9FD0346002B08D1504B1B68002B04D008
:1058900005F031FB0346002B02D06FF018038EE0B9
:1058A000FB68013B342202FB03F3494A1344FB61CA
:1058B00005F02EFBB861FB699B68002B03D16FF0EC
:1058C00029033B6168E0FB691B6A7A689A4203DD41
:1058D0006FF010033B615FE0FB6914331846FFF77C
:1058E00031FD0346002B11D1FB695B697B617B694C
:1058F0001B6C7A68B9681846FBF7CBFA7B695B6C5E
:105900007A681A60786903F0FAFF45E0FFF762FDF4
:105910000346002B0ED12D4B1B68002B0AD02B4BBE
:105920001B681946F86904F015F90246274B1B68F5
:105930009A420CD17968F869FFF75CFD0346002BA9
:1059400005D07A68B968F869FFF7A0FD24E06FF028
:1059500031033B613B68002B1DD0FB691B6903F0E1
:105960000103002B01D01B4A00E01B4A174B1B68A8
:10597000DA62164B1B6807F11002DA63134B1B68DF
:10598000BA681A64114B1B687A685A643968F869F6
:1059900004F098F800E000BFBB69002B0BD10B4B63
:1059A0001A680E4B1B689A4205D0074B1B68002BE8
:1059B00001D105F057FDB86905F090FA3B6918462A
:1059C0002037BD4680BD00BF0C15002010150020FB
:1059D00014110020400901003409010014150020B1
:1059E00080B588B000AF786039607B689B6AFB61E6
:1059F0007B681B6B7B61FB697A6913441B68BB6125
:105A0000BB693B617B685B6A1A46BB69033323F061
:105A10000303134404331A467B685A62FB69043358
:105A2000FB617B68DB69FA699A4201DB0023FB6159
:105A30007B68DA69FB69D31AFB60FA68BB699A4232
:105A400011DAFB697A691344FA6819463868FBF77A
:105A500020FAFB683A6813443B60BA69FB68D31AC2
:105A6000BB610023FB61FB697A691344BA6919467B
:105A70003868FBF70EFABB69033323F00303FA69B6
:105A80001344FB617B68DB69FA699A4201DB0023FE
:105A9000FB617B68FA699A623B6918462037BD460C
:105AA00080BD80B58AB000AFF860B9607A6000232D
:105AB0007B61FB68002B02DDFB68082B02DD6FF0C9
:105AC00011039EE07B68B3F1FF3F02DA6FF0100331
:105AD00097E04E4B1B68002B0DD1FFF77BFC034674
